S00D000054657374312E7372656346
S11300000C943E000C9448000C9448000C94480056
S11300100C9448000C9448000C9448000C9448003C
S11300200C9448000C9448000C9448000C9448002C
S11300300C9448000C9448000C9448000C9448001C
S11300400C9448000C9448000C9448000C9448000C
S11300500C9448000C9448000C9448000C944800FC
S11300600C9448000C9448000C9448000C944800EC
S11300700C9448000C9448000C94480011241FBEB2
S1130080CFEFD8E0DEBFCDBF0E944A000C94F5004C
S11300900C940000CAECD0E088818F7B888388812F
S11300A08F77888360E070E08CE492E40E94920091
S11300B0E8ECF0E020812D7F2083272F332727FDD4
S11300C03A952093CD006093CC0088E18093C900D9
S11300D08881866088838881877F888388818F7EF2
S11300E0888388818F7D888380E281B9000080B90C
S11300F00000AEECB0E020E280818823ECF79C9114
S1130100808185FFFDCF9C9320B900003FE382E40A
S11301109FE0315080409040E1F700C00000049817
S11301200000EACF41D0A8F19E57A8F1985160F0A1
S113013039F1983070F5092E9927660F771F881FBB
S1130140991F0A94D1F71CC0BB27993F4CF4B111F5
S1130150B1E0B62B672F782F8827985FB1F708C0D6
S1130160869577956795B79508F4B1609395C1F72F
S1130170BB0F30F411F460FF03C06F5F7F4F8F4FEC
S11301803EF490958095709561957F4F8F4F9F4F6A
S11301900895689424C022C057FD9058440F551FF9
S11301A059F05F3F71F04795880F97FB991F61F0F5
S11301B09F3F79F087950895121613061406551F6C
S11301C0F2CF4695F1DF08C0161617061806991FD8
S11301D0F1CF86957105610508940895E894BB27CD
S11101E066277727CB0197F90895F894FFCF8F
S9030000FC
