:100000000C943E000C945B000C945B000C945B0021
:100010000C945B000C945B000C945B000C945B00F4
:100020000C945B000C945B000C945B000C945B00E4
:100030000C945B000C9422090C945B000C945B0004
:100040000C945B000C945B000C945B000C945B00C4
:100050000C94C4030C945B000C945B000C945B0048
:100060000C9433030C945B000C945B000C945B00C9
:100070000C94D3070C945B000C942D0811241FBE24
:10008000CFEFD8E0DEBFCDBF11E0A0E0B1E0EAEBFA
:10009000FAE102C005900D92A430B107D9F723E030
:1000A000A4E0B1E001C01D92A536B207E1F70E94BD
:1000B0006A000C945B0D0C94000080E895E20E94AD
:1000C000DC050E9492010E94D3080E94AD010E94AB
:1000D000280308950E945D00089A78940E948B017D
:1000E0000E9417090E943C0AFBCFCF92DF92EF9249
:1000F000FF920F931F93CF93DF93CDB7DEB72A976D
:100100000FB6F894DEBF0FBECDBF882324F48195CF
:100110000E94B8001EC018861F821A861986819513
:1001200090E0382F2227822B932B9A8389839C83FC
:100130008B836B01CE0107967C0102E010E09E01EB
:100140002F5F3F4F42E050E060E071E0CB010E9442
:100150006C082A960FB6F894DEBF0FBECDBFDF91B4
:10016000CF911F910F91FF90EF90DF90CF90089566
:10017000CF92DF92EF92FF920F931F93CF93DF9373
:10018000CDB7DEB72A970FB6F894DEBF0FBECDBF4E
:10019000882324F481950E9475001DC018861F8253
:1001A0001A86198690E0382F2227822B932B9A8368
:1001B00089839C838B836B01CE0107967C0102E0CF
:1001C00010E09E012F5F3F4F42E050E060E071E0A1
:1001D000CB010E946C082A960FB6F894DEBF0FBEC2
:1001E000CDBFDF91CF911F910F91FF90EF90DF90E6
:1001F000CF900895309A319A0895369A379A089593
:10020000CF92DF92EF92FF920F931F93CF93DF93E2
:10021000CDB7DEB728970FB6F894DEBF0FBECDBFBF
:100220008B018230910509F047C0419A4098479A66
:100230004698FB018081D82E88231CF4D1940E941B
:10024000FA006D2D772767FD7095872F972F0E94F5
:10025000670B20E030E048EC52E40E94D10A20E035
:1002600030E04FE753E40E94800C0E94390B67BDD9
:1002700068BDF8018281182F88231CF411950E9413
:10028000FD00612F772767FD7095872F972F0E94BC
:10029000670B20E030E048EC52E40E94D10A20E0F5
:1002A00030E04FE753E40E94800C0E94390B6093CA
:1002B000B3006093B40020C00397F1F4FB01808188
:1002C00091819E838D838281938198878F831A8207
:1002D00019821C821B82C480D580CE0101967C01CC
:1002E00002E010E09E012B5F3F4F42E050E060E0F3
:1002F00071E0CB010E946C0828960FB6F894DEBF1F
:100300000FBECDBFDF91CF911F910F91FF90EF9066
:10031000DF90CF90089517BC18BC1092B3001092D4
:10032000B4000895389A399A419A4098239A249AA9
:1003300084B5806884BD84B58F7B84BD84B58062BC
:1003400084BD84B58F7E84BD84B5836084BD17BCB5
:1003500018BC16BC83E085BD08953E9A3F9A479A23
:100360004698579A569AE0EBF0E080818068808347
:1003700080818F7B808380818062808380818F7E7B
:1003800080838081836080831092B3001092B400D8
:100390001092B200E1EBF0E080818C7F808380815D
:1003A00084608083089520913D0180913E0190E01A
:1003B000A0E0B0E0820F911DA11DB11D20913F0171
:1003C000820F911DA11DB11D20914001820F911D31
:1003D000A11DB11DB695A79597958795B695A7953B
:1003E000979587950895209141018091420190E071
:1003F000A0E0B0E0820F911DA11DB11D209143012D
:10040000820F911DA11DB11D20914401820F911DEC
:10041000A11DB11DB695A79597958795B695A795FA
:10042000979587950895209145018091460190E028
:10043000A0E0B0E0820F911DA11DB11D20914701E8
:10044000820F911DA11DB11D20914801820F911DA8
:10045000A11DB11DB695A79597958795B695A795BA
:100460009795879508952091490180914A0190E0E0
:10047000A0E0B0E0820F911DA11DB11D20914B01A4
:10048000820F911DA11DB11D20914C01820F911D64
:10049000A11DB11DB695A79597958795B695A7957A
:1004A000979587950895CF93382F813108F030E1E3
:1004B0003323A9F140E050E020E060E070E0CB01A0
:1004C000A0E1B0E0E0910501F0E0E41BF50B6AF07B
:1004D000E0910501F0E0E41BF50BEE0FFF1FE35E7A
:1004E000FE4F0190F081E02D0EC0C0910501FD018D
:1004F000E41BF50BEC0FF11DEE0FFF1FE35EFE4F4B
:100500000190F081E02D6E0F7F1F811D911DEF2B5B
:1005100009F02F5F4F5F5F4F4317A0F204C020E048
:1005200060E070E0CB0130E040E050E00E94F70C6A
:10053000C901CF910895CF93DF939C0140E050E033
:10054000FA01EE0FFF1FE35EFE4F118210824F5F34
:100550005F4F40315105A1F710924D0110924E01AD
:1005600010924F01109250015098519A599AC2EC32
:10057000D0E088818F738883E0ECF0E080818D7F0C
:100580008083C901AA2797FDA095BA2F880F991FCC
:10059000AA1FBB1F880F991FAA1FBB1F9C01AD017B
:1005A000220F331F441F551F220F331F441F551F97
:1005B00060E072E18AE790E00E94190DCA01B9017A
:1005C00061507109810991090E94670B0E94460CD4
:1005D000272F332727FD3A952093C5006093C40049
:1005E000E1ECF0E080E1808388818660888380810F
:1005F0008B7F80838881877F888388818F7C8883B5
:10060000808180688083DF91CF910895EEE7F0E0EC
:100610008081806F8083ECE7F0E08081806480835C
:1006200080818F7780838081807E808380818460D9
:100630008083EAE7F0E08081886080838081806841
:100640008083808187608083808180648083089537
:100650000C980D980E980F980E94060380E895E27A
:100660000E949B0208951F920F920FB60F921124C1
:100670002F933F934F935F936F937F938F939F93AA
:10068000AF93BF93CF93DF93EF93FF936091780085
:100690008091790070E0782B6031710510F460E191
:1006A00070E080910A01C0910901D0E094E0899F37
:1006B000C00DD11D112480E090E00E94650B20E068
:1006C00030E040E351E40E946C0A9B01AC0160E021
:1006D00070EC81E095E40E94D10A20E030E040E037
:1006E0005FE30E946D0A0E94A20B0E94390BFE017B
:1006F000E35CFE4F60838081843028F484E0FE0157
:10070000E35CFE4F8083FE01E35CFE4F80818F310E
:1007100010F08EE18083809109018F5F8093090141
:1007200080910901843039F41092090180910A0105
:100730008F5F80930A0180910A01843011F4109236
:100740000A01ECE7F0E08081807F808390818091D6
:100750000A018C5F892B8083EAE7F0E08081806466
:100760008083FF91EF91DF91CF91BF91AF919F91E6
:100770008F917F916F915F914F913F912F910F904A
:100780000FBE0F901F9018951F920F920FB60F92E9
:1007900011244F925F927F928F929F92AF92BF925D
:1007A000CF92EF92FF921F932F933F934F935F93BC
:1007B0006F937F938F939F93AF93BF93CF93DF9369
:1007C000EF93FF931091C600123539F482E58093C0
:1007D0004D0181E080930601A5C080914D018235D5
:1007E00009F07CC080910601843009F077C01D308B
:1007F00009F074C00F2EFEE4EF2EF1E0FF2EF02D75
:10080000F70160810F2EFFE44F2EF1E05F2EF02DF7
:10081000F2017080C0E5D1E0C88070E080E090E037
:100820000E94670B20E030E048EC52E40E94800C0C
:100830004B015C01672D70E080E090E00E94670B47
:1008400020E030E040E251E40E94800C9B01AC01CA
:10085000C501B4010E946D0A4B015C016C2D70E072
:1008600080E090E00E94670B9B01AC01C501B401E0
:100870000E946D0A23E333E34BEC51E40E94800CA9
:1008800020E030E040E05FE30E946D0A0E94A20B8E
:100890000E94390BE0910501F0E0EE0FFF1FE35ECF
:1008A000FE4F71836083709308016093070180910C
:1008B00005018F5F80930501809105018F70809302
:1008C000050110924D01F7011082F2011082188289
:1008D00010920601809104018111599880910601BE
:1008E000843050F010924D0110924E0110924F0141
:1008F000109250011092060180914D01823591F4C1
:10090000812F90E0C0970A9768F4E0910601F0E02B
:1009100080ED810FE35BFE4F8083809106018F5F46
:1009200080930601FF91EF91DF91CF91BF91AF913D
:100930009F918F917F916F915F914F913F912F91F7
:100940001F91FF90EF90CF90BF90AF909F908F90AE
:100950007F905F904F900F900FBE0F901F90189553
:10096000282F2F7730E0F901EE0FFF1FEF5AFE4FCF
:1009700091819F3FB1F1F901EE0FFF1FEF5AFE4F3A
:10098000618190E041814F3F71F1F901EE0FFF1F4E
:10099000EF5AFE4F4181552747FD5095262F30E0F5
:1009A0004217530711F5019666E09C012F77332714
:1009B000F901EE0FFF1FEF5AFE4F71817F3FB9F033
:1009C000F901EE0FFF1FEF5AFE4F2181332727FD5C
:1009D00030952417350769F4615001966111E5CF10
:1009E0000AC080E0089580E0089580E0089580E0E6
:1009F000089580E0089581E00895CF92DF92EF920C
:100A0000FF920F931F93CF93DF93CDB7DEB7279756
:100A10000FB6F894DEBF0FBECDBFE0910E01EF77A9
:100A2000F0E0EE0FFF1FEF5AFE4F2081E0910E0124
:100A3000F0E03196EF77FF27EE0FFF1FEF5AFE4FE2
:100A40003081E0910E01F0E03296EF77FF27EE0F54
:100A5000FF1FEF5AFE4F4081E0910E01F0E0339608
:100A6000EF77FF27EE0FFF1FEF5AFE4F8081E091D7
:100A70000E01F0E03496EF77FF27EE0FFF1FEF5ADD
:100A8000FE4FE080F12CF82AE0910E01F0E035965F
:100A9000EF77FF27EE0FFF1FEF5AFE4F8081E091A7
:100AA0000E01F0E03696EF77FF27EE0FFF1FEF5AAB
:100AB000FE4F008110E0182B80E090E0EFEFFFEF99
:100AC0005FEFA0910E016C01CA0ED11CD601AF7769
:100AD000BB27AA0FBB1FAF5ABE4FAC91EA27AE2F60
:100AE000A295AE270A2EA695A695A0250A2EA69514
:100AF000A025A7700E2EEF2FA6950794A795F02D91
:100B0000EA270694A795F025EA27A0910E016C012B
:100B1000CA0ED11CD601AF77BB27AA0FBB1FAF5A95
:100B2000BE4F11965C9301968730910509F0C9CFAD
:100B3000EF2B21F481E0FB01808302C0FB011082D6
:100B4000FD82EC821F830E835E2D6D81702F8F815D
:100B500090E027960FB6F894DEBF0FBECDBFDF91B1
:100B6000CF911F910F91FF90EF90DF90CF9008955C
:100B700080E090E02FEFFC01EE0FFF1FDF01AF5A86
:100B8000BE4F11962C93EF5AFD4F21831082019690
:100B90008038910581F710920B0110920C01109290
:100BA00012011092110110920D0110920F0110927A
:100BB0000E011092100108950F931F93CF93DF93AE
:100BC0008C010E94B8055298539ACAECD0E08881F3
:100BD0008F738883E8ECF0E080818D7F8083C8018B
:100BE000AA2797FDA095BA2F880F991FAA1FBB1F90
:100BF000880F991FAA1FBB1F9C01AD01220F331F35
:100C0000441F551F220F331F441F551F60E072E120
:100C10008AE790E00E94190DCA01B901615071097B
:100C2000810991090E94670B0E94460C272F3327E8
:100C300027FD3A952093CD006093CC00E9ECF0E0DD
:100C400088E1808388818660888380818B7F808330
:100C50008881877F888388818F7C88838081806872
:100C60008083808180648083DF91CF911F910F9179
:100C700008958091C80085FF31C0F894E0910C017F
:100C8000F0E0EE0FFF1FEF5AFD4F81818F3F29F1FA
:100C9000E0910C01F0E0EE0FFF1FEF5AFD4F808155
:100CA0008093CE00E0910C01F0E0EE0FFF1FEF5AB1
:100CB000FD4F8FEF8183E0910C01F0E0EE0FFF1FFD
:100CC000EF5AFD4F108280910C018F5F80930C01D1
:100CD00080910C018F7780930C01789408950F9385
:100CE0001F93CF93DF93CDB7DEB729970FB6F89454
:100CF000DEBF0FBECDBF09831A832B833C834D8398
:100D00005E836F83972F78878987E0910B014E2F41
:100D100050E0EF77F0E0EE0FFF1FEF5AFD4F00833A
:100D20000183FA013196EF77FF27EE0FFF1FEF5A8D
:100D3000FD4F26E0208301839A012E5F3F4FFE0185
:100D40003296BE01685F7F4FD901AF77BB27119103
:100D5000AA0FBB1FAF5ABD4F1C9311960C932F5F68
:100D60003F4FE617F70781F7FA013896EF77FF272D
:100D7000EE0FFF1FEF5AFD4F80830183FA01399672
:100D8000EF77FF27EE0FFF1FEF5AFD4F9083018390
:100D9000BA01665F7F4F80E090E02FEF3FEFE09178
:100DA0000B01DC01AE0FB11DFD01EF77FF27EE0F48
:100DB000FF1FEF5AFD4FE0812E27E22FE295E22739
:100DC0000E2EE695E695E0250E2EE695E025E770D9
:100DD000022E232FE6950794E795302D2E270694B3
:100DE000E79530252E2701968A309105C1F6FB0143
:100DF000EF77FF27EE0FFF1FEF5AFD4F2083018390
:100E0000FA013B96EF77FF27EE0FFF1FEF5AFD4FDA
:100E100030830183445F5F4F4F7740930B010E9403
:100E2000390629960FB6F894DEBF0FBECDBFDF910D
:100E3000CF911F910F9108950F931F93CF93DF933D
:100E4000CDB7DEB72F970FB6F894DEBF0FBECDBF7C
:100E50008C01FE01389687E0DF011D928A95E9F743
:100E6000F801108280910E010E94B0048823C1F025
:100E700080910E01BE01615F7F4F0E94FD043987A2
:100E80004A875B876C877D878E878F85882321F0D3
:100E900081E0D8018C932EC082E0F80180832AC0C3
:100EA00080910E0190E007978038910504F58091BC
:100EB0000E0187500E94B0048823D9F080910E0162
:100EC000BE01615F7F4F87500E94FD0439874A87CA
:100ED0005B876C877D878E878F85882321F081E0F3
:100EE000D8018C9307C082E0F801808303C020E022
:100EF00001C020E020930D01288787E0FE0138968D
:100F0000DE01119601900D928A95E1F729813A81CF
:100F10004B815C816D817E818F8190E02F960FB631
:100F2000F894DEBF0FBECDBFDF91CF911F910F911F
:100F300008950F931F93CF93DF93CDB7DEB7299713
:100F40000FB6F894DEBF0FBECDBF80910D0189832F
:100F50000E94D3018A830E94F3018B830E941302B3
:100F60008C830E9433028D8383E00E9453029E8310
:100F70008F830E94F908782F8887998709811A81C1
:100F80002B813C814D815E816F81892F0E946F068C
:100F900029960FB6F894DEBF0FBECDBFDF91CF917B
:100FA0001F910F9108951F920F920FB60F92112467
:100FB0008F939F93EF93FF938091CE0090911001B8
:100FC00091111BC0009AE0911101F0E0EE0FFF1F9C
:100FD000EF5AFE4F8183E0911101F0E0EE0FFF1F09
:100FE000EF5AFE4F808391E09093100180930F01A0
:100FF0008091110180930E011DC0E0911101F0E07C
:1010000090910F01EE0FFF1FEF5AFE4F9183E09179
:101010001101F0E0EE0FFF1FEF5AFE4F8083809129
:1010200010018F5F8093100180911001873011F4BF
:1010300010921001809111018F5F809311018091B6
:1010400011018F7780931101FF91EF919F918F9103
:101050000F900FBE0F901F9018951F920F920FB612
:101060000F9211248F93EF93FF93E0910C01F0E026
:10107000EE0FFF1FEF5AFD4F81818F3F29F1E09165
:101080000C01F0E0EE0FFF1FEF5AFD4F80818093BF
:10109000CE00E0910C01F0E0EE0FFF1FEF5AFD4F84
:1010A0001082E0910C01F0E0EE0FFF1FEF5AFD4FB0
:1010B0008FEF818380910C018F5F80930C01809171
:1010C0000C018F7780930C01FF91EF918F910F901E
:1010D0000FBE0F901F9018958F929F92AF92BF9264
:1010E000CF92DF92EF92FF920F931F93CF93DF93F4
:1010F000EC015A014901F89470931C0160931B01A3
:1011000010931A01009319010115110591F0EE2DAC
:10111000FF2D80E090E041915191DC01AA0FBB1FAF
:10112000AF5ABC4F11965C934E930196801791076E
:1011300091F79601369527953695279536952795FB
:10114000A5ECB0E20E94380D929582958F708927A8
:101150009F708927BC0180E090E00E94650B20E031
:1011600030E040E05FE30E946D0A0E94A20B0E9403
:10117000390B6093000170930101809302019093F9
:101180000301B401C501FE0109957894DF91CF9167
:101190001F910F91FF90EF90DF90CF90BF90AF9095
:1011A0009F908F900895E0E8F0E080818F708083B9
:1011B00080818C7F8083E1E8F0E08081886080839B
:1011C00080818F7E8083109285001092840088E554
:1011D0009BE1909389008093880080818D7F80833C
:1011E000808185608083EFE6F0E08081826080838B
:1011F000089580911701909118010895109214019B
:1012000010921801109217011092160110921501F8
:10121000089581E0809314010895009729F0909338
:1012200016018093150108950E94FE08089580918B
:101230001301882321F0109213010E9499078091D5
:10124000140108951F920F920FB60F9211242F933D
:101250003F934F935F936F937F938F939F93AF933E
:10126000BF93EF93FF93809114018130D9F4809163
:1012700017019091180188519C4F90931801809309
:10128000170181E08093130120911701309118011B
:1012900080911501909116012817390719F48FEFE5
:1012A00080931401009A8091000190910101A09116
:1012B0000201B0910301892B8A2B8B2B09F18091BC
:1012C000000190910101A0910201B09103018F33BF
:1012D0009244AF40B105A1F08091000190910101CD
:1012E000A0910201B09103010197A109B109809376
:1012F000000190930101A0930201B093030117C074
:101300008091000190910101A0910201B09103012F
:10131000892B8A2B8B2B59F48091190190911A01FA
:10132000E0911B01F0911C0161E573E00995FF91CB
:10133000EF91BF91AF919F918F917F916F915F914D
:101340004F913F912F910F900FBE0F901F901895C6
:101350004F925F926F927F929F92AF92BF92CF9285
:10136000DF92EF92FF920F931F93CF93DF93CDB74E
:10137000DEB72B970FB6F894DEBF0FBECDBF2D831F
:101380003E83942E4F83588769877A878B87088599
:101390001985009A0115110509F458C06B817C81EB
:1013A00080E090E00E94650B6B017C01A980BA800F
:1013B000B80180E090E00E94650B2B013C01B50173
:1013C00080E090E00E94650B9B01AC01C701B60173
:1013D0000E946D0A9B01AC01C701B6010E94D10AAF
:1013E0009B01AC01C301B2010E94800C0E94390B29
:1013F0007C836B838E81992787FD909599231CF4BC
:10140000919581959109692D772767FD70957723CF
:101410001CF4719561957109680F791F0E94E30CA6
:10142000609FC001619F900D709F900D11249A8361
:10143000898360ED77E0892D0E94B8000E94FE0844
:1014400080ED97E00E940D090E9409092B960FB6C6
:10145000F894DEBF0FBECDBFDF91CF911F910F91EA
:10146000FF90EF90DF90CF90BF90AF909F907F90D4
:101470006F905F904F900895CF93DF93CDB7DEB715
:1014800028970FB6F894DEBF0FBECDBF1982CE01EC
:1014900001960E941C072A833B834C835D836E83E5
:1014A0007F8388878981813071F42F3719F40E94F6
:1014B000990709C02A813B814C815D816E817F81C2
:1014C00088850E94A80928960FB6F894DEBF0FBE43
:1014D000CDBFDF91CF9108955058BB27AA270ED0DA
:1014E00084C175D130F07AD120F031F49F3F11F4EE
:1014F0001EF46AC10EF4E095E7FB37C1E92F86D1EF
:1015000080F3BA17620773078407950718F071F420
:101510009EF5B5C10EF4E0950B2EBA2FA02D0B0150
:10152000B90190010C01CA01A0011124FF27591B28
:1015300099F0593F50F4503E68F11A16F040A22F2E
:10154000232F342F4427585FF3CF4695379527959F
:10155000A795F0405395C9F77EF41F16BA0B620B9E
:10156000730B840BBAF09150A1F0FF0FBB1F661FE5
:10157000771F881FC2F70EC0BA0F621F731F841F28
:1015800048F4879577956795B795F7959E3F08F04E
:10159000B3CF9395880F08F09927EE0F979587950D
:1015A00008950CD022C11AD140F011D130F021F4AD
:1015B0005F3F19F0DAC0511163C106C127D198F31A
:1015C0009923C9F35523B1F3951B550BBB27AA27C4
:1015D00062177307840738F09F5F5F4F220F331F36
:1015E000441FAA1FA9F333D00E2E3AF0E0E830D002
:1015F00091505040E695001CCAF729D0FE2F27D005
:10160000660F771F881FBB1F261737074807AB07D2
:10161000B0E809F0BB0B802DBF01FF2793585F4F47
:101620002AF09E3F510568F0A0C02AC15F3FECF34D
:10163000983EDCF3869577956795B795F7959F5F0C
:10164000C9F7880F911D9695879597F90895E1E060
:10165000660F771F881FBB1F621773078407BA07BF
:1016600020F0621B730B840BBA0BEE1F88F7E0951A
:101670000895D4D088F09F5790F0B92F9927B7518B
:10168000A0F0D1F0660F771F881F991F1AF0BA9546
:10169000C9F712C0B13081F0F2D0B1E00895EFC0C7
:1016A000672F782F8827B85F39F0B93FCCF386953C
:1016B00077956795B395D9F73EF490958095709599
:1016C00061957F4F8F4F9F4F0895E89409C097FB16
:1016D0003EF490958095709561957F4F8F4F9F4F09
:1016E0009923A9F0F92F96E9BB279395F69587954D
:1016F00077956795B795F111F8CFFAF4BB0F11F410
:1017000060FF1BC06F5F7F4F8F4F9F4F16C08823B6
:1017100011F096E911C0772321F09EE8872F762FEC
:1017200005C0662371F096E8862F70E060E02AF02D
:101730009A95660F771F881FDAF7880F9695879519
:1017400097F9089585D080F09F3740F491110EF0FD
:1017500097C060E070E080E89FEB089526F41B16C8
:10176000611D711D811D07C021C097F99F6780E829
:1017700070E060E00895882371F4772321F0985099
:10178000872B762F07C0662311F499270DC090513F
:10179000862B70E060E02AF09A95660F771F881F0D
:1017A000DAF7880F9695879597F908959F3F31F05E
:1017B000915020F4879577956795B795880F911D7F
:1017C0009695879597F908959FEF80EC08950024EA
:1017D0000A941616170618060906089500240A9496
:1017E00012161306140605060895092E0394000C1C
:1017F00011F4882352F0BB0F40F4BF2B11F460FFAB
:1018000004C06F5F7F4F8F4F9F4F089557FD9058D3
:10181000440F551F59F05F3F71F04795880F97FBB4
:10182000991F61F09F3F79F087950895121613066E
:101830001406551FF2CF4695F1DF08C0161617069D
:101840001806991FF1CF86957105610508940895D2
:10185000E5DFA0F0BEE7B91788F4BB279F3860F436
:101860001616B11D672F782F8827985FF7CF8695BA
:1018700077956795B11D93959639C8F30895E894C7
:10188000BB2766277727CB0197F90895C7DFA8F113
:101890009E57A8F1985160F039F1983070F5092EF3
:1018A0009927660F771F881F991F0A94D1F71CC0CC
:1018B000BB27993F4CF4B111B1E0B62B672F782FBD
:1018C0008827985FB1F708C0869577956795B79593
:1018D00008F4B1609395C1F7BB0F30F411F460FFC9
:1018E00003C06F5F7F4F8F4F3EF49095809570954A
:1018F00061957F4F8F4F9F4F08956894C1CFBFCFA1
:101900000BD073CF64DF28F069DF18F0952309F05E
:101910002CCF5ACF1124B4CF79DFA0F3959FD1F308
:10192000950F50E0551F629FF001729FBB27F00D8D
:10193000B11D639FAA27F00DB11DAA1F649F6627E2
:10194000B00DA11D661F829F2227B00DA11D621F31
:10195000739FB00DA11D621F839FA00D611D221FEB
:10196000749F3327A00D611D231F849F600D211DCF
:10197000822F762F6A2F11249F5750408AF0E1F072
:1019800088234AF0EE0FFF1FBB1F661F771F881FBB
:1019900091505040A9F79E3F510570F0E6CE70CFB0
:1019A0005F3FECF3983EDCF3869577956795B795A6
:1019B000F795E7959F5FC1F7FE2B880F911D9695D0
:1019C000879597F9089597FB072E16F4009407D092
:1019D00077FD09D00E94470D07FC05D03EF4909595
:1019E00081959F4F0895709561957F4F0895A1E26D
:1019F0001A2EAA1BBB1BFD010DC0AA1FBB1FEE1F89
:101A0000FF1FA217B307E407F50720F0A21BB30BD3
:101A1000E40BF50B661F771F881F991F1A9469F74F
:101A200060957095809590959B01AC01BD01CF01AB
:101A30000895052E97FB1EF400940E94300D57FD6B
:101A400007D00E94F70C07FC03D04EF40C94300D25
:101A500050954095309521953F4F4F4F5F4F0895DA
:101A600090958095709561957F4F8F4F9F4F08950A
:101A7000A29FB001B39FC001A39F700D811D1124CF
:101A8000911DB29F700D811D1124911D0895AA1BF7
:101A9000BB1B51E107C0AA1FBB1FA617B70710F059
:101AA000A61BB70B881F991F5A95A9F7809590958B
:0A1AB000BC01CD010895F894FFCFAA
:041ABA003F420F0098
:00000001FF
