:100000000C943E000C945B000C945B000C945B0021
:100010000C945B000C945B000C945B000C945B00F4
:100020000C945B000C945B000C945B000C945B00E4
:100030000C945B000C94D3080C945B000C945B0054
:100040000C945B000C945B000C945B000C945B00C4
:100050000C9400030C945B000C945B000C945B000C
:100060000C9400020C945B000C945B000C945B00FD
:100070000C9413080C945B000C946D0811241FBEA3
:10008000CFEFD8E0DEBFCDBF11E0A0E0B1E0E0E20D
:10009000F8E102C005900D92A430B107D9F723E032
:1000A000A4E0B1E001C01D92A036B207E1F70E94C2
:1000B0009C000C940E0C0C94000080E895E20E94C9
:1000C00058050E9414010E94AD080E9439010E9447
:1000D000F50108950F931F93CF93DF93CDB7DEB74C
:1000E00061970FB6F894DEBF0FBECDBFCE0101966B
:1000F0000E949B072A835D836E838D819E81298167
:10010000213079F4009769F00A81782F998B888BD8
:1001100012E023E03C854D855E856F8589890E94CC
:10012000EC0561960FB6F894DEBF0FBECDBFDF9130
:10013000CF911F910F9108950E945D000F9A7894BE
:100140000E9403010E946A00FDCFBC01882777FD51
:100150008095982F0E94450A20E030E048EC52E458
:100160000E94AF0920E030E04FE753E40E94330BD8
:100170000E94170A67BD0895BC01882777FD809506
:10018000982F0E94450A20E030E048EC52E40E949B
:10019000AF0920E030E04FE753E40E94330B0E94A8
:1001A000170A68BD0895BC01882777FD8095982FB0
:1001B0000E94450A20E030E048EC52E40E94AF097A
:1001C00020E030E04FE753E40E94330B0E94170A0F
:1001D0006093B3000895BC01882777FD8095982F20
:1001E0000E94450A20E030E048EC52E40E94AF094A
:1001F00020E030E04FE753E40E94330B0E94170ADF
:100200006093B400089580E090E00E94A50080E033
:1002100090E00E94BC0080E090E00E94D30080E06B
:1002200090E00E94EB000895209A219A229A229A47
:10023000299A28982D9A2A98239A249A84B5806816
:1002400084BD84B58F7B84BD84B5806284BD84B554
:100250008F7E84BD84B5836084BD80E090E00E9481
:10026000A50080E090E00E94BC0016BC83E085BD44
:1002700008953E9A3F9A389A399A479A4698419AF1
:100280004098579A569AE0EBF0E08081806880832E
:1002900080818F7B808380818062808380818F7E5C
:1002A000808380818360808380E090E00E94D3001F
:1002B00080E090E00E94EB001092B200E1EBF0E0F1
:1002C00080818C7F80838081846080830895CF9338
:1002D000DF939C0140E050E0FA01EE0FFF1FEE0FAC
:1002E000FF1FE85EFE4F10821182128213824F5F61
:1002F0005F4F4A30510581F7109240011092410141
:1003000010924201109243015098519A599AC2ECAE
:10031000D0E088818F738883E0ECF0E080818D7F6E
:100320008083C901AA2797FDA095BA2F880F991F2E
:10033000AA1FBB1F880F991FAA1FBB1F9C01AD01DD
:10034000220F331F441F551F220F331F441F551FF9
:1003500060E072E18AE790E00E94AA0BCA01B9014D
:1003600061507109810991090E94450A0E94F90AA8
:10037000272F332727FD3A952093C5006093C400AB
:10038000E1ECF0E080E18083888186608883808171
:100390008B7F80838881877F888388818F7C888317
:1003A000808180688083DF91CF910895ECE7F0E051
:1003B00080818064808380818F7780838081807E4C
:1003C0008083EAE7F0E080818068808380818860B4
:1003D0008083808187608083AEE7B0E08C918F60FE
:1003E0008C938081806480830895089809980A9886
:1003F0000B980E94D60180E895E20E94670108955B
:100400001F920F920FB60F9211242F933F934F9389
:100410005F936F937F938F939F93AF93BF93CF938C
:10042000DF93EF93FF93409178008091790050E043
:10043000582B4031510510F440E150E0E0910B01A0
:10044000F0910C019F01ABEABAEA0E94C90BEC01E2
:10045000D695C795CE01880F991FC80FD91F2C1BA1
:100460003D0BE901BA0180E090E00E94430A20E0E0
:1004700030E040E351E40E9446099B01AC0160E09A
:1004800070EC81E095E40E94AF09CC0FDD1FCC0F2A
:10049000DD1FCC5BDE4F688379838A839B83409129
:1004A0000B0150910C019A01ABEABAEA0E94C90B08
:1004B000969587959C01220F331F820F931F9A01F7
:1004C000281B390BF901EE0FFF1FEE0FFF1FEC5B2E
:1004D000FE4F608171818281938120E030E040E8AD
:1004E00050E40E94AB09882314F540910B01509110
:1004F0000C019A01ABEABAEA0E94C90B969587955E
:100500009C01220F331F820F931F9A01281B390B66
:10051000F901EE0FFF1FEE0FFF1FEC5BFE4F80E0B7
:1005200090E0A0E8B0E480839183A283B3834091FC
:100530000B0150910C019A01ABEABAEA0E94C90B77
:10054000969587959C01220F331F820F931F9A0166
:10055000281B390BF901EE0FFF1FEE0FFF1FEC5B9D
:10056000FE4F608171818281938120E030E040EF15
:1005700051E40E94F50A181614F540910B015091B0
:100580000C019A01ABEABAEA0E94C90B96958795CD
:100590009C01220F331F820F931F9A01281B390BD6
:1005A000F901EE0FFF1FEE0FFF1FEC5BFE4F80E027
:1005B00090E0A0EFB1E480839183A283B383809124
:1005C0000B0190910C01019690930C0180930B010B
:1005D000EAE7F0E0808180648083FF91EF91DF9112
:1005E000CF91BF91AF919F918F917F916F915F91CB
:1005F0004F913F912F910F900FBE0F901F90189524
:100600001F920F920FB60F921124CF92DF92EF92AA
:10061000FF921F932F933F934F935F936F937F931B
:100620008F939F93AF93BF93CF93DF93EF93FF93FA
:10063000C091C600C23539F482E58093400181E063
:10064000809306019BC080914001823509F063C010
:1006500080910601843009F05EC0CD3009F05BC0A6
:100660006091410110914201D091430170E080E01E
:1006700090E00E94450A20E030E048EC52E40E94FD
:10068000330B6B017C01612F70E080E090E00E94F1
:10069000450A20E030E040E251E40E94330B9B0128
:1006A000AC01C701B6010E9447096B017C016D2FA7
:1006B00070E080E090E00E94450A9B01AC01C70118
:1006C000B6010E9447092CE53FE842E250E40E944F
:1006D000330BE0910501F0E0EE0FFF1FEE0FFF1F5F
:1006E000E85EFE4F6083718382839383609307018A
:1006F000709308018093090190930A01809105018C
:100700008F5F80930501809105018A3040F110923E
:10071000050125C0599880910601843050F010924F
:100720004001109241011092420110924301109237
:10073000060180914001823509F58C2F90E0C09729
:100740000A97E0F4E0910601F0E0C053E05CFE4F50
:10075000C083809106018F5F809306010FC01092C5
:1007600040011092410110924201109243011092F7
:100770000601809104018111CDCFCDCFFF91EF9182
:10078000DF91CF91BF91AF919F918F917F916F91A9
:100790005F914F913F912F911F91FF90EF90DF90CC
:1007A000CF900F900FBE0F901F9018950F931F932F
:1007B000CF93DF9323E0829F212D1124982F921B4A
:1007C0009695920F9295969596959370292F2795C9
:1007D00022272795291B482F421B50E0FA01EE0FD4
:1007E000FF1FE05BFE4F91819F3F09F446C0FA0175
:1007F000EE0FFF1FE05BFE4F1181282F30E0C90193
:100800006FE770E00E94960BFC01EE0FFF1FE05BAC
:10081000FE4F41814F3F99F1FC01EE0FFF1FE05B5E
:10082000FE4FC181DD27C7FDD095812F90E0C8170D
:10083000D90739F52F5F3F4F46E00FE710E0C901B8
:10084000B8010E94960BFC01EE0FFF1FE05BFE4F0C
:1008500051815F3FC1F0FC01EE0FFF1FE05BFE4FD7
:100860008181992787FD90958C179D0771F44150E0
:100870002F5F3F4F4111E3CF0AC080E009C080E005
:1008800007C080E005C080E003C080E001C081E0D7
:10089000DF91CF911F910F9108957F928F929F9238
:1008A000AF92BF92CF92DF92EF92FF920F931F937E
:1008B000CF93DF93CDB7DEB727970FB6F894DEBF9F
:1008C0000FBECDBF4B01E0910F0193E0E99F912D49
:1008D00011248E2F891B8695890F82958695869582
:1008E0008370982F979599279795981BE91BF0E0AF
:1008F000EE0FFF1FE05BFE4F208180910F0190E023
:100900000196EFE7F0E0BF010E94960BDC01AA0F11
:10091000BB1FA05BBE4F3C9180910F0190E00296FF
:10092000BF010E94960BDC01AA0FBB1FA05BBE4F4C
:100930004C9180910F0190E00396BF010E94960BAD
:10094000DC01AA0FBB1FA05BBE4F1C9180910F0161
:1009500090E00496BF010E94960BDC01AA0FBB1F1A
:10096000A05BBE4FAC90B12CB12A80910F0190E0FA
:100970000596BF010E94960BDC01AA0FBB1FA05B6E
:10098000BE4F1C9180910F0190E00696BF010E941E
:10099000960BFC01EE0FFF1FE05BFE4FC080D12CD9
:1009A000D12AE0E0F0E00FEF1FEF0F2EFFE7EF2E70
:1009B000F12CF02D77247A9480910F01BF01680FFC
:1009C000711DCB01B7010E94960BDC01AA0FBB1F62
:1009D000A05BBE4F8C910827802F82958027082E20
:1009E000869586958025082E869580258770002E11
:1009F000012F869507948795102D082706948795D3
:100A00001025082780910F01BF01680F711DCB01D0
:100A1000B7010E94960BDC01AA0FBB1FA05BBE4F63
:100A200011967C923196E730F10509F0C5CF012B84
:100A300021F481E0F401808302C0F4011082BD82C0
:100A4000AC82DF82CE825A2D6D817C2D8F8190E029
:100A500027960FB6F894DEBF0FBECDBFDF91CF91C2
:100A60001F910F91FF90EF90DF90CF90BF90AF90CC
:100A70009F908F907F90089580E090E02FEFFC0191
:100A8000EE0FFF1FDF01A05BBE4F11962C93E25BC0
:100A9000FD4F2183108201968F37910581F71092C7
:100AA0000D0110920E01109213011092120108957F
:100AB0000F931F93CF93DF938C010E943C055298B4
:100AC000539ACAECD0E088818F738883E8ECF0E019
:100AD00080818D7F8083C801AA2797FDA095BA2FBA
:100AE000880F991FAA1FBB1F880F991FAA1FBB1F22
:100AF0009C01AD01220F331F441F551F220F331FCE
:100B0000441F551F60E072E18AE790E00E94AA0B43
:100B1000CA01B90161507109810991090E94450A10
:100B20000E94F90A272F332727FD3A952093CD00FD
:100B30006093CC00E9ECF0E088E1808388818660F6
:100B4000888380818B7F80838881877F8883888169
:100B50008F7C8883808180688083808180648083AB
:100B6000DF91CF911F910F9108958091C80085FF6B
:100B700032C0F894E0910E01F0E0EE0FFF1FE25B4F
:100B8000FD4F81818F3F31F1E0910E01F0E0EE0FDA
:100B9000FF1FE25BFD4F80818093CE00E0910E014C
:100BA000F0E0EE0FFF1FE25BFD4F8FEF8183E091DE
:100BB0000E01F0E0EE0FFF1FE25BFD4F108280910F
:100BC0000E018F5F80930E0180910E018F3710F020
:100BD00010920E0178940895BF92CF92DF92EF9217
:100BE000FF920F931F93CF93DF93CDB7DEB7299773
:100BF0000FB6F894DEBF0FBECDBFB02E09831A83A7
:100C00002B833C834D835E836F83D72E78878987C0
:100C1000C82EE0900D01F12C9701A5E0B2E00E94F2
:100C2000C90B281B390B36952795820F931F00247B
:100C3000880F991F001C880F991F001C892F902D69
:100C40009C013695322F222737952795A901481BFD
:100C5000590BB701641B750BFB01EE0FFF1FE25B25
:100C6000FD4F00830183A7014F5F5F4F9A010E94F0
:100C7000C90B281B390B36952795820F931F00242B
:100C8000880F991F001C880F991F001C892F902D19
:100C90009C013695322F222737952795B901681B7D
:100CA000790B9A01261B370BF901EE0FFF1FE25B50
:100CB000FD4F86E0808301834F5F5F4FFE013296D8
:100CC0008E01085F1F4F9A01A5E0B2E00E94C90B98
:100CD000BA01681B790B76956795860F971FBC0143
:100CE0000024660F771F001C660F771F001C672FFC
:100CF000702DCB019695982F882797958795861B01
:100D0000970BBA01681B790B8191DB01AA0FBB1FFE
:100D1000A25BBD4F8C931196BC924F5F5F4FE01763
:100D2000F10789F6A701485F5F4F9A01A5E0B2E09D
:100D30000E94C90B281B390B36952795820F931FEC
:100D40000024880F991F001C880F991F001C892FF1
:100D5000902D9C013695322F222737952795B90182
:100D6000681B790B9A01261B370BF901EE0FFF1F49
:100D7000E25BFD4FC082B1824F5F5F4F9A010E94DC
:100D8000C90B281B390B36952795820F931F00241A
:100D9000880F991F001C880F991F001C892F902D08
:100DA0009C013695322F222737952795B901681B6C
:100DB000790B9A01261B370BF901EE0FFF1FE25B3F
:100DC000FD4FD082B18267013AE0C30ED11CE0E052
:100DD000F0E00FEF1FEF2FE730E080910D01AF0142
:100DE000480F511DCA01B9010E94960BDC01AA0FE0
:100DF000BB1FA25BBD4F8C910827802F8295802757
:100E0000082E869586958025082E869580258770E4
:100E1000002E012F869507948795102D082706949C
:100E20008795102508273196EA30F10509F0D5CFCE
:100E30009601A5E0B2E00E94C90B281B390B36953C
:100E40002795820F931F0024880F991F001C880F7D
:100E5000991F001C892F902D9C013695322F222737
:100E600037952795B901681B790B9601261B370B1F
:100E7000F901EE0FFF1FE25BFD4F0083B182A70176
:100E8000455F5F4F9A010E94C90B281B390B3695AD
:100E90002795820F931F0024880F991F001C880F2D
:100EA000991F001C892F902D9C013695322F2227E7
:100EB00037952795B901681B790B9A01261B370BCB
:100EC000F901EE0FFF1FE25BFD4F1083B1823CE0A2
:100ED000E30EF11C97010E94C90B281B390B3695B4
:100EE0002795820F931F0024880F991F001C880FDD
:100EF000991F001C892F902D9C013695322F222797
:100F000037952795A901481B590BE41AF50AE09279
:100F10000D010E94B50529960FB6F894DEBF0FBEED
:100F2000CDBFDF91CF911F910F91FF90EF90DF9098
:100F3000CF90BF9008950F931F93CF93DF93CDB7BA
:100F4000DEB72F970FB6F894DEBF0FBECDBF8C0172
:100F5000FE01389687E0DF011D928A95E9F7F801D6
:100F6000108280910F010E94D6038823C9F08091DE
:100F70000F01BE01615F7F4F0E944D0428873987B2
:100F80004A875B876C877D878E878F85882321F0D2
:100F900081E0D8018C932BC082E0F801808327C0C8
:100FA00080910F0190E007978F37910504F58091AC
:100FB0000F0187500E94D6038823C9F080910F014A
:100FC000BE01615F7F4F87500E944D04288739879B
:100FD0004A875B876C877D878E878F85882321F082
:100FE00081E0D8018C9303C082E0F801808387E020
:100FF000FE013896DE01119601900D928A95E1F777
:1010000029813A814B815C816D817E818F8190E065
:101010002F960FB6F894DEBF0FBECDBFDF91CF91F4
:101020001F910F9108951F920F920FB60F921124E6
:101030008F939F93EF93FF938091CE009091110136
:1010400091111AC0E0911201F0E0EE0FFF1FE05B7A
:10105000FE4F8183E0911201F0E0EE0FFF1FE05B95
:10106000FE4F808391E09093110180931001809155
:10107000120180930F011DC0E0911201F0E09091E8
:101080001001EE0FFF1FE05BFE4F9183E091120114
:10109000F0E0EE0FFF1FE05BFE4F808380911101B7
:1010A0008F5F8093110180911101873011F41092AC
:1010B0001101809112018F5F8093120180911201C2
:1010C0008F3710F010921201FF91EF919F918F9145
:1010D0000F900FBE0F901F9018951F920F920FB692
:1010E0000F9211248F93EF93FF93E0910E01F0E0A4
:1010F000EE0FFF1FE25BFD4F81818F3F31F1E091E9
:101100000E01F0E0EE0FFF1FE25BFD4F8081809348
:10111000CE00E0910E01F0E0EE0FFF1FE25BFD4F0D
:101120001082E0910E01F0E0EE0FFF1FE25BFD4F39
:101130008FEF818380910E018F5F80930E018091EC
:101140000E018F3710F010920E01FF91EF918F91E9
:101150000F900FBE0F901F901895E0E8F0E080818F
:101160008F71808380818C7F8083E1E8F0E08081D3
:101170008860808380818F7E808380818B7F808365
:10118000808183608083109285001092840082EEBB
:1011900094E09093890080938800EFE6F0E08081EE
:1011A0008260808308951F920F920FB60F921124D0
:1011B0002F933F934F935F936F937F938F939F935F
:1011C000AF93BF93EF93FF93809100019091010142
:1011D000A0910201B0910301892B8A2B8B2B09F17D
:1011E0008091000190910101A0910201B091030151
:1011F0008F399648A140B105A1F0809100019091EE
:101200000101A0910201B09103010197A109B10967
:101210008093000190930101A0930201B093030118
:1012200024C08091000190910101A0910201B09130
:101230000301892B8A2B8B2BC1F48091140190918F
:101240001501E0911601F09117016CE473E0099526
:1012500017988FE996E8A1E0B0E0809300019093A1
:101260000101A0930201B0930301FF91EF91BF919F
:10127000AF919F918F917F916F915F914F913F912E
:101280002F910F900FBE0F901F9018955058BB27AD
:10129000AA270ED070C161D130F066D120F031F4B0
:1012A0009F3F11F41EF456C10EF4E095E7FB4CC1CC
:1012B000E92F72D180F3BA17620773078407950785
:1012C00018F071F49EF58AC10EF4E0950B2EBA2F3A
:1012D000A02D0B01B90190010C01CA01A00111243C
:1012E000FF27591B99F0593F50F4503E68F11A16E8
:1012F000F040A22F232F342F4427585FF3CF469579
:1013000037952795A795F0405395C9F77EF41F169A
:10131000BA0B620B730B840BBAF09150A1F0FF0F64
:10132000BB1F661F771F881FC2F70EC0BA0F621F50
:10133000731F841F48F4879577956795B795F79540
:101340009E3F08F0B3CF9395880F08F09927EE0FD2
:10135000979587950895D4D008F481E008950CD02E
:101360000AC102D140F0F9D030F021F45F3F19F00A
:10137000EBC0511134C1EEC00FD198F39923C9F3DA
:101380005523B1F3951B550BBB27AA27621773078B
:10139000840738F09F5F5F4F220F331F441FAA1F3F
:1013A000A9F333D00E2E3AF0E0E830D091505040FF
:1013B000E695001CCAF729D0FE2F27D0660F771FAD
:1013C000881FBB1F261737074807AB07B0E809F08F
:1013D000BB0B802DBF01FF2793585F4F2AF09E3F24
:1013E000510568F0B1C0FBC05F3FECF3983EDCF301
:1013F000869577956795B795F7959F5FC9F7880F9D
:10140000911D9695879597F90895E1E0660F771FEE
:10141000881FBB1F621773078407BA0720F0621B7F
:10142000730B840BBA0BEE1F88F7E0950895BCD0C0
:1014300088F09F5790F0B92F9927B751A0F0D1F0BD
:10144000660F771F881F991F1AF0BA95C9F712C047
:10145000B13081F0C3D0B1E00895C0C0672F782FBC
:101460008827B85F39F0B93FCCF3869577956795B3
:10147000B395D9F73EF490958095709561957F4F1F
:101480008F4F9F4F0895E89409C097FB3EF49095C5
:101490008095709561957F4F8F4F9F4F9923A9F04D
:1014A000F92F96E9BB279395F695879577956795DC
:1014B000B795F111F8CFFAF4BB0F11F460FF1BC020
:1014C0006F5F7F4F8F4F9F4F16C0882311F096E9B3
:1014D00011C0772321F09EE8872F762F05C0662361
:1014E00071F096E8862F70E060E02AF09A95660F1A
:1014F000771F881FDAF7880F9695879597F90895D3
:10150000990F0008550FAA0BE0E8FEEF1616170614
:10151000E807F907C0F012161306E407F50798F07C
:10152000621B730B840B950B39F40A2661F0232B95
:10153000242B252B21F408950A2609F4A140A69511
:101540008FEF811D811D089597F99F6780E870E0F6
:1015500060E008959FEF80EC089500240A94161629
:10156000170618060906089500240A941216130691
:10157000140605060895092E0394000C11F488231F
:1015800052F0BB0F40F4BF2B11F460FF04C06F5F3B
:101590007F4F8F4F9F4F089557FD9058440F551F11
:1015A00059F05F3F71F04795880F97FB991F61F0E5
:1015B0009F3F79F087950895121613061406551F5C
:1015C000F2CF4695F1DF08C0161617061806991FC8
:1015D000F1CF86957105610508940895E894BB27BD
:1015E00066277727CB0197F908958ADF08F48FEFF4
:1015F0000895DADFA8F19E57A8F1985160F039F10B
:10160000983070F5092E9927660F771F881F991F4C
:101610000A94D1F71CC0BB27993F4CF4B111B1E03B
:10162000B62B672F782F8827985FB1F708C086956B
:1016300077956795B79508F4B1609395C1F7BB0F9F
:1016400030F411F460FF03C06F5F7F4F8F4F3EF4A3
:1016500090958095709561957F4F8F4F9F4F08951E
:101660006894BDCFBBCF0BD086CF77DF28F07CDF6F
:1016700018F0952309F068CF6DCF1124B0CF8CDF1F
:10168000A0F3959FD1F3950F50E0551F629FF00195
:10169000729FBB27F00DB11D639FAA27F00DB11DEE
:1016A000AA1F649F6627B00DA11D661F829F222777
:1016B000B00DA11D621F739FB00DA11D621F839FFE
:1016C000A00D611D221F749F3327A00D611D231FD4
:1016D000849F600D211D822F762F6A2F11249F5722
:1016E00050408AF0E1F088234AF0EE0FFF1FBB1F45
:1016F000661F771F881F91505040A9F79E3F5105E4
:1017000070F022CF6CCF5F3FECF3983EDCF3869510
:1017100077956795B795F795E7959F5FC1F7FE2B8E
:10172000880F911D9695879597F9089597FB072E39
:1017300016F4009407D077FD09D00E94D80B07FC5F
:1017400005D03EF4909581959F4F089570956195D1
:101750007F4F0895052E97FB1EF400940E94C10B45
:1017600057FD07D00E94EC0B07FC03D04EF40C94FD
:10177000C10B50954095309521953F4F4F4F5F4F8E
:10178000089590958095709561957F4F8F4F9F4FED
:101790000895A29FB001B39FC001A39F700D811D4A
:1017A0001124911DB29F700D811D1124911D08956A
:1017B000AA1BBB1B51E107C0AA1FBB1FA617B70777
:1017C00010F0A61BB70B881F991F5A95A9F7809593
:1017D0009095BC01CD010895A1E21A2EAA1BBB1B56
:1017E000FD010DC0AA1FBB1FEE1FFF1FA217B307ED
:1017F000E407F50720F0A21BB30BE40BF50B661F03
:10180000771F881F991F1A9469F7609570958095C6
:1018100090959B01AC01BD01CF010895F894FFCFD5
:041820009F8601009E
:00000001FF
