:100000000C943E000C945B000C945B000C945B0021
:100010000C945B000C945B000C945B000C945B00F4
:100020000C945B000C945B000C945B000C945B00E4
:100030000C945B000C94C2070C945B000C945B0066
:100040000C945B000C945B000C945B000C945B00C4
:100050000C94BA030C945B000C945B000C945B0052
:100060000C94BA020C945B000C945B000C945B0043
:100070000C94BE060C945B000C94180711241FBE50
:10008000CFEFD8E0DEBFCDBF11E0A0E0B1E0EEEAF7
:10009000F5E102C005900D92A430B107D9F723E035
:1000A000A4E0B1E001C01D92A336B207E1F70E94BF
:1000B000A5000C94D50A0C94000080E895E20E94FB
:1000C00090040E94CE010E949C070E94F3010E94AE
:1000D000AF0208950F931F93CF93DF93CDB7DEB791
:1000E00028970FB6F894DEBF0FBECDBFCE010196A4
:1000F0000E9446063B835D836E8389818130D1F403
:100100002D813E81232BB1F08B8118161CF40E94A7
:100110000C0110C0042F112707FD1095C8010E9483
:10012000C500C8010E94F400C8010E94AE00C801C9
:100130000E94DC0028960FB6F894DEBF0FBECDBF3C
:10014000DF91CF911F910F9108950E945D000F9A4A
:1001500078940E94BD010E946A00FDCFBC018827EF
:1001600077FD8095982F0E94340920E030E048EC1C
:1001700052E40E949E0820E030E04FE753E40E94E2
:10018000220A0E94060967BD0895BC01882777FDF1
:100190008095982F0E94340920E030E048EC52E42A
:1001A0000E949E0820E030E04FE753E40E94220ABC
:1001B0000E94060968BD0895BC01882777FD8095D7
:1001C000982F0E94340920E030E048EC52E40E946D
:1001D0009E0820E030E04FE753E40E94220A0E948C
:1001E00006096093B3000895BC01882777FD8095C8
:1001F000982F0E94340920E030E048EC52E40E943D
:100200009E0820E030E04FE753E40E94220A0E945B
:1002100006096093B4000895CF92DF92EF92FF92A7
:100220000F931F93CF93DF93CDB7DEB728970FB609
:10023000F894DEBF0FBECDBF80EB90EB9A8389832D
:1002400080E590E59C838B831E821D8218861F8229
:100250000F2EF4E6CF2ED12CF02DCE0105967C0189
:1002600002E010E09E012F5F3F4F42E050E067E563
:1002700071E0CB010E94580728960FB6F894DEBFB4
:100280000FBECDBFDF91CF911F910F91FF90EF90E7
:10029000DF90CF900895189A199A08951A9A1D9A86
:1002A0000895369A379A0895309A319A08951F938F
:1002B000CF93DF93EB01299A28982D9A2A98479A91
:1002C0004698419A40989981892F990F990B0E94DD
:1002D000AE008881998199270E94C5009B81892F52
:1002E000990F990B0E94DC008A819B8199270E94BB
:1002F000F4009981192F99231CF411950E944B0148
:10030000812F992787FD90950E94AE009881192F23
:1003100099231CF411950E944E01812F992787FD86
:1003200090950E94C5009B81192F99231CF411956B
:100330000E945101812F992787FD90950E94DC0032
:100340009A81192F99231CF411950E945401812F31
:10035000992787FD90950E94F40089810E942206CA
:1003600088810E9422068B810E9422068A810E9437
:100370002206DF91CF911F91089580E090E00E94C6
:10038000AE0080E090E00E94C50080E090E00E9416
:10039000DC0080E090E00E94F4000895209A219A09
:1003A000229A229A299A28982D9A2A98239A249A4E
:1003B00084B5806884BD84B58F7B84BD84B580623C
:1003C00084BD84B58F7E84BD84B5836084BD80E0A8
:1003D00090E00E94AE0080E090E00E94C50016BC54
:1003E00083E085BD08953E9A3F9A389A399A479A94
:1003F0004698419A4098579A569AE0EBF0E08081EF
:100400008068808380818F7B80838081806280830D
:1004100080818F7E808380818360808380E090E014
:100420000E94DC0080E090E00E94F4001092B20094
:10043000E1EBF0E080818C7F808380818460808329
:100440000895CF93DF939C0140E050E0FA01EE0F56
:10045000FF1FEE0FFF1FE95EFE4F10821182128216
:1004600013824F5F5F4F4A30510581F710923F0171
:100470001092400110924101109242015098519AFD
:10048000599AC2ECD0E088818F738883E0ECF0E069
:1004900080818D7F8083C901AA2797FDA095BA2FFF
:1004A000880F991FAA1FBB1F880F991FAA1FBB1F68
:1004B0009C01AD01220F331F441F551F220F331F14
:1004C000441F551F60E072E18AE790E00E94850AB0
:1004D000CA01B90161507109810991090E94340969
:1004E0000E94E809272F332727FD3A952093C5005E
:1004F0006093C400E1ECF0E080E180838881866055
:10050000888380818B7F80838881877F88838881AF
:100510008F7C8883808180688083DF91CF9108956C
:10052000ECE7F0E080818064808380818F77808336
:100530008081807E8083EAE7F0E08081806880832C
:10054000808188608083808187608083AEE7B0E0AF
:100550008C918F608C93808180648083089508984B
:1005600009980A980B980E94900280E895E20E94F0
:10057000210208951F920F920FB60F9211242F930C
:100580003F934F935F936F937F938F939F93AF931B
:10059000BF93CF93DF93EF93FF93409178008091C7
:1005A000790050E0582B4031510510F440E150E003
:1005B000E0910B01F0910C019F01ABEABAEA0E94B5
:1005C000A40AEC01D695C795CE01880F991FC80FD4
:1005D000D91F2C1B3D0BE901BA0180E090E00E947D
:1005E000320920E030E040E351E40E9435089B01ED
:1005F000AC0160E070EC81E095E40E949E08CC0FB5
:10060000DD1FCC0FDD1FCD5BDE4F688379838A83CE
:100610009B8340910B0150910C019A01ABEABAEA1D
:100620000E94A40A969587959C01220F331F820F82
:10063000931F9A01281B390BF901EE0FFF1FEE0FD4
:10064000FF1FED5BFE4F608171818281938120E00D
:1006500030E040E850E40E949A08882314F5409165
:100660000B0150910C019A01ABEABAEA0E94A40A6C
:10067000969587959C01220F331F820F931F9A0135
:10068000281B390BF901EE0FFF1FEE0FFF1FED5B6B
:10069000FE4F80E090E0A0E8B0E480839183A283E5
:1006A000B38340910B0150910C019A01ABEABAEA75
:1006B0000E94A40A969587959C01220F331F820FF2
:1006C000931F9A01281B390BF901EE0FFF1FEE0F44
:1006D000FF1FED5BFE4F608171818281938120E07D
:1006E00030E040EF51E40E94E409181614F54091FF
:1006F0000B0150910C019A01ABEABAEA0E94A40ADC
:10070000969587959C01220F331F820F931F9A01A4
:10071000281B390BF901EE0FFF1FEE0FFF1FED5BDA
:10072000FE4F80E090E0A0EFB1E480839183A2834C
:10073000B38380910B0190910C01019690930C0171
:1007400080930B01EAE7F0E0808180648083FF9171
:10075000EF91DF91CF91BF91AF919F918F917F9159
:100760006F915F914F913F912F910F900FBE0F901E
:100770001F9018951F920F920FB60F921124CF92CF
:10078000DF92EF92FF921F932F933F934F935F93CC
:100790006F937F938F939F93AF93BF93CF93DF9389
:1007A000EF93FF93C091C600C23539F482E5809380
:1007B0003F0181E0809306019BC080913F0182351B
:1007C00009F063C080910601843009F05EC0CD302D
:1007D00009F05BC06091400110914101D09142014C
:1007E00070E080E090E00E94340920E030E048ECC6
:1007F00052E40E94220A6B017C01612F70E080E0CC
:1008000090E00E94340920E030E040E251E40E9490
:10081000220A9B01AC01C701B6010E9436086B0198
:100820007C016D2F70E080E090E00E9434099B0114
:10083000AC01C701B6010E9436082CE53FE842E250
:1008400050E40E94220AE0910501F0E0EE0FFF1F44
:10085000EE0FFF1FE95EFE4F6083718382839383F7
:1008600060930701709308018093090190930A0136
:10087000809105018F5F80930501809105018A3089
:1008800040F11092050125C05998809106018430ED
:1008900050F010923F0110924001109241011092CD
:1008A00042011092060180913F01823509F58C2F9B
:1008B00090E0C0970A97E0F4E0910601F0E0C053A1
:1008C000E15CFE4FC083809106018F5F809306013B
:1008D0000FC010923F0110924001109241011092FE
:1008E000420110920601809104018111CDCFCDCF3C
:1008F000FF91EF91DF91CF91BF91AF919F918F9138
:100900007F916F915F914F913F912F911F91FF9038
:10091000EF90DF90CF900F900FBE0F901F90189523
:10092000CF93DF939C0140E050E08FEFFA01EE0F90
:10093000FF1FDF01A15BBE4F11968C93E15BFD4F62
:10094000818310824F5F5F4F4038510579F752988D
:10095000539ACAECD0E088818F738883E8ECF0E08A
:1009600080818D7F8083C901AA2797FDA095BA2F2A
:10097000880F991FAA1FBB1F880F991FAA1FBB1F93
:100980009C01AD01220F331F441F551F220F331F3F
:10099000441F551F60E072E18AE790E00E94850ADB
:1009A000CA01B90161507109810991090E94340994
:1009B0000E94E809272F332727FD3A952093CD0081
:1009C0006093CC00E9ECF0E088E180838881866068
:1009D000888380818B7F80838881877F88838881DB
:1009E0008F7C88838081806880838081806480831D
:1009F000DF91CF910895282F2F7730E0F901EE0F86
:100A0000FF1FE15BFE4F91819F3F09F446C0F90152
:100A1000EE0FFF1FE15BFE4F618190E09C012F779D
:100A20003078F901EE0FFF1FE15BFE4F41814F3F30
:100A3000B1F1F901EE0FFF1FE15BFE4F4181552738
:100A400047FD5095262F30E04217530751F5019688
:100A500066E09C012F773078332334F4215031093C
:100A600020683F6F2F5F3F4FF901EE0FFF1FE15BE3
:100A7000FE4F71817F3FB9F0F901EE0FFF1FE15B7F
:100A8000FE4F2181332727FD30952417350769F460
:100A9000615001966111DDCF0AC080E0089580E0C9
:100AA000089580E0089580E0089580E0089581E051
:100AB0000895AF92BF92CF92DF92EF92FF920F9381
:100AC0001F93CF93DF93CDB7DEB727970FB6F89478
:100AD000DEBF0FBECDBFE0910F01EF77F0E0EE0F6C
:100AE000FF1FE15BFE4F2081E0910F01F0E03196A6
:100AF000EF77F078EE0FFF1FE15BFE4F3081E09162
:100B00000F01F0E03296EF77F078EE0FFF1FE15B18
:100B1000FE4F4081E0910F01F0E03396EF77F078DF
:100B2000EE0FFF1FE15BFE4F8081E0910F01F0E0CF
:100B30003496EF77F078EE0FFF1FE15BFE4FC08039
:100B4000D12CD82AE0910F01F0E03596EF77F078BC
:100B5000EE0FFF1FE15BFE4F8081E0910F01F0E09F
:100B60003696EF77F078EE0FFF1FE15BFE4FE080E7
:100B7000F12CF82A80E090E00FEF1FEF5FEFA091DB
:100B80000F01FC015C01AA0EB11CD501AF77B07852
:100B9000BB2324F41197A068BF6F1196AA0FBB1F47
:100BA000A15BBE4FAC910A27A02FA295A0270A2EC9
:100BB000A695A695A0250A2EA695A025A770002E7D
:100BC000012FA6950794A795102D0A270694A7959F
:100BD00010250A27A0910F01EA0FF11DEF77F07899
:100BE000FF2324F43197E068FF6F3196EE0FFF1F6B
:100BF000E15BFE4F518301968730910509F0BFCF2D
:100C0000012B21F481E0FB01808302C0FB011082F3
:100C1000DD82CC82FF82EE825C2D6D817E2D8F8104
:100C200090E027960FB6F894DEBF0FBECDBFDF91E0
:100C3000CF911F910F91FF90EF90DF90CF90BF90D9
:100C4000AF9008959091C80095FF03C08093CE00A7
:100C50000895E0910D01F0E0EE0FFF1FE15BFD4F05
:100C60008083E0910D01F0E0EE0FFF1FE15BFD4F8F
:100C700081E0818380910D018F5F80930D018091D0
:100C80000D01813810F010920D0108950F931F93FC
:100C9000CF93DF93CDB7DEB72F970FB6F894DEBFB3
:100CA0000FBECDBF8C01FE01389687E0DF011D929B
:100CB0008A95E9F7F801108280910F010E94FB04E8
:100CC0008823C9F080910F01BE01615F7F4F0E94B0
:100CD0005905288739874A875B876C877D878E8788
:100CE0008F85882321F081E0D8018C932BC082E08E
:100CF000F801808327C080910F0190E0079780382A
:100D0000910504F580910F0187500E94FB04882310
:100D1000C9F080910F01BE01615F7F4F87500E9433
:100D20005905288739874A875B876C877D878E8737
:100D30008F85882321F081E0D8018C9303C082E065
:100D4000F801808387E0FE013896DE01119601905C
:100D50000D928A95E1F729813A814B815C816D8101
:100D60007E818F8190E02F960FB6F894DEBF0FBE84
:100D7000CDBFDF91CF911F910F9108951F920F92D8
:100D80000FB60F9211248F939F93EF93FF9380914F
:100D9000CE009091110191111AC0E0911201F0E082
:100DA000EE0FFF1FE15BFE4F8183E0911201F0E047
:100DB000EE0FFF1FE15BFE4F808391E090931101E6
:100DC000809310018091120180930F011DC0E0916A
:100DD0001201F0E090911001EE0FFF1FE15BFE4F5A
:100DE0009183E0911201F0E0EE0FFF1FE15BFE4FF7
:100DF0008083809111018F5F809311018091110197
:100E0000873011F410921101809112018F5F80934D
:100E1000120180911201882314F410921201FF91A3
:100E2000EF919F918F910F900FBE0F901F9018958B
:100E30001F920F920FB60F9211248F93EF93FF938F
:100E4000E0910E01F0E0EE0FFF1FE15BFD4F8181AD
:100E50008F3F31F1E0910E01F0E0EE0FFF1FE15BFB
:100E6000FD4F80818093CE00E0910E01F0E0EE0F07
:100E7000FF1FE15BFD4F1082E0910E01F0E0EE0FED
:100E8000FF1FE15BFD4F8FEF818380910E018F5F2C
:100E900080930E0180910E01813810F010920E01A6
:100EA000FF91EF918F910F900FBE0F901F901895AB
:100EB000AF92BF92CF92DF92EF92FF920F931F9368
:100EC000CF93DF935C01CA01A9017093160160936F
:100ED000150110931401009313010115110591F0F0
:100EE000CE2DDF2DA0E0B0E0699179919D01220F18
:100EF000331FF901E15BFC4F718360831196A017EA
:100F0000B10791F7860120E030E0009300011093D3
:100F100001012093020130930301BA01F501099503
:100F2000179ADF91CF911F910F91FF90EF90DF9073
:100F3000CF90BF90AF900895E0E8F0E080818F718E
:100F4000808380818C7F8083E1E8F0E0808188600D
:100F5000808380818F7E808380818B7F808380816E
:100F600083608083109285001092840082EE94E06A
:100F70009093890080938800EFE6F0E080818260A2
:100F8000808308951F920F920FB60F9211242F9312
:100F90003F934F935F936F937F938F939F93AF9301
:100FA000BF93EF93FF938091000190910101A09175
:100FB0000201B0910301892B8A2B8B2B09F18091BF
:100FC000000190910101A0910201B09103018F39BC
:100FD0009648A140B105A1F08091000190910101D6
:100FE000A0910201B09103010197A109B109809379
:100FF000000190930101A0930201B093030124C06A
:101000008091000190910101A0910201B091030132
:10101000892B8A2B8B2BC1F48091130190911401A1
:10102000E0911501F09116016FE473E009951798AE
:101030008FE996E8A1E0B0E0809300019093010170
:10104000A0930201B0930301FF91EF91BF91AF9183
:101050009F918F917F916F915F914F913F912F91D0
:101060000F900FBE0F901F9018955058BB27AA27BE
:101070000ED070C161D130F066D120F031F49F3FC5
:1010800011F41EF456C10EF4E095E7FB4CC1E92FB4
:1010900072D180F3BA17620773078407950718F0B7
:1010A00071F49EF58AC10EF4E0950B2EBA2FA02D97
:1010B0000B01B90190010C01CA01A0011124FF2705
:1010C000591B99F0593F50F4503E68F11A16F04000
:1010D000A22F232F342F4427585FF3CF46953795FF
:1010E0002795A795F0405395C9F77EF41F16BA0BC4
:1010F000620B730B840BBAF09150A1F0FF0FBB1F72
:10110000661F771F881FC2F70EC0BA0F621F731FBA
:10111000841F48F4879577956795B795F7959E3F17
:1011200008F0B3CF9395880F08F09927EE0F9795A5
:1011300087950895D4D008F481E008950CD00AC1B1
:1011400002D140F0F9D030F021F45F3F19F0EBC04C
:10115000511134C1EEC00FD198F39923C9F355232F
:10116000B1F3951B550BBB27AA276217730784079A
:1011700038F09F5F5F4F220F331F441FAA1FA9F350
:1011800033D00E2E3AF0E0E830D091505040E69542
:10119000001CCAF729D0FE2F27D0660F771F881FA3
:1011A000BB1F261737074807AB07B0E809F0BB0B92
:1011B000802DBF01FF2793585F4F2AF09E3F5105B6
:1011C00068F0B1C0FBC05F3FECF3983EDCF386955E
:1011D00077956795B795F7959F5FC9F7880F911D2C
:1011E0009695879597F90895E1E0660F771F881F18
:1011F000BB1F621773078407BA0720F0621B730BCB
:10120000840BBA0BEE1F88F7E0950895BCD088F0E8
:101210009F5790F0B92F9927B751A0F0D1F0660FE2
:10122000771F881F991F1AF0BA95C9F712C0B130FD
:1012300081F0C3D0B1E00895C0C0672F782F882710
:10124000B85F39F0B93FCCF3869577956795B3953C
:10125000D9F73EF490958095709561957F4F8F4FAB
:101260009F4F0895E89409C097FB3EF490958095B0
:10127000709561957F4F8F4F9F4F9923A9F0F92F5C
:1012800096E9BB279395F695879577956795B795DA
:10129000F111F8CFFAF4BB0F11F460FF1BC06F5FC0
:1012A0007F4F8F4F9F4F16C0882311F096E911C0D2
:1012B000772321F09EE8872F762F05C0662371F0F3
:1012C00096E8862F70E060E02AF09A95660F771F07
:1012D000881FDAF7880F9695879597F90895990FE3
:1012E0000008550FAA0BE0E8FEEF16161706E807F0
:1012F000F907C0F012161306E407F50798F0621B11
:10130000730B840B950B39F40A2661F0232B242BE5
:10131000252B21F408950A2609F4A140A6958FEF04
:10132000811D811D089597F99F6780E870E060E056
:1013300008959FEF80EC089500240A94161617066E
:1013400018060906089500240A94121613061406B6
:1013500005060895092E0394000C11F4882352F019
:10136000BB0F40F4BF2B11F460FF04C06F5F7F4FD1
:101370008F4F9F4F089557FD9058440F551F59F0B8
:101380005F3F71F04795880F97FB991F61F09F3F72
:1013900079F087950895121613061406551FF2CF9B
:1013A0004695F1DF08C0161617061806991FF1CFEB
:1013B00086957105610508940895E894BB27662712
:1013C0007727CB0197F908958ADF08F48FEF089506
:1013D000DADFA8F19E57A8F1985160F039F1983002
:1013E00070F5092E9927660F771F881F991F0A9499
:1013F000D1F71CC0BB27993F4CF4B111B1E0B62B1B
:10140000672F782F8827985FB1F708C08695779562
:101410006795B79508F4B1609395C1F7BB0F30F4A9
:1014200011F460FF03C06F5F7F4F8F4F3EF49095C4
:101430008095709561957F4F8F4F9F4F0895689469
:10144000BDCFBBCF0BD086CF77DF28F07CDF18F085
:10145000952309F068CF6DCF1124B0CF8CDFA0F3B6
:10146000959FD1F3950F50E0551F629FF001729F39
:10147000BB27F00DB11D639FAA27F00DB11DAA1F58
:10148000649F6627B00DA11D661F829F2227B00DA5
:10149000A11D621F739FB00DA11D621F839FA00D30
:1014A000611D221F749F3327A00D611D231F849F80
:1014B000600D211D822F762F6A2F11249F575040D7
:1014C0008AF0E1F088234AF0EE0FFF1FBB1F661F72
:1014D000771F881F91505040A9F79E3F510570F02B
:1014E00022CF6CCF5F3FECF3983EDCF38695779587
:1014F0006795B795F795E7959F5FC1F7FE2B880F26
:10150000911D9695879597F90895052E97FB1EF4E2
:1015100000940E949C0A57FD07D00E94B30A07FC62
:1015200003D04EF40C949C0A50954095309521952B
:101530003F4F4F4F5F4F08959095809570956195FF
:101540007F4F8F4F9F4F0895A29FB001B39FC0015F
:10155000A39F700D811D1124911DB29F700D811DDF
:101560001124911D0895A1E21A2EAA1BBB1BFD0197
:101570000DC0AA1FBB1FEE1FFF1FA217B307E40772
:10158000F50720F0A21BB30BE40BF50B661F771FCA
:10159000881F991F1A9469F76095709580959095AA
:0E15A0009B01AC01BD01CF010895F894FFCF6F
:0415AE009F86010013
:00000001FF
