S019000054657374325F61746D65676133323450412E7372656341
S11300000C943E000C945B000C945B000C945B001D
S11300100C945B000C945B000C945B000C945B00F0
S11300200C945B000C945B000C945B000C945B00E0
S11300300C945B000C945B0A0C945B000C945B00C6
S11300400C945B000C945B000C945B000C945B00C0
S11300500C948F050C945B000C945B000C945B0077
S11300600C94FF040C945B000C945B000C945B00F8
S11300700C9457090C945B000C94B00911241FBE16
S1130080CFEFD8E0DEBFCDBF11E0A0E0B1E0E0E10A
S1130090FBE102C005900D92A430B107D9F723E02B
S11300A0A4E0B1E001C01D92A636B207E1F70E94B8
S11300B040010C94860D0C94000080E895E20E94A7
S11300C09F070E94B9030E94350A0E94D8030E9428
S11300D0F4040895BF92CF92DF92EF92FF920F93B0
S11300E01F93CF93DF93CDB7DEB761970FB6F89424
S11300F0DEBF0FBECDBFCE0101960E94DF08D32E16
S1130100C42E2A833B834C835D836E837F838887DD
S1130110ED80FE808981813009F043C0E114F1044F
S113012011F11092090110920801022F298782E02F
S11301308A8783E08B877E2DF98AE88A12E023E0A0
S11301403C854D855E856F8589890E943208DD2056
S113015029F0B7018D2D0E94780223C0B7018C2DA0
S11301600E94EA011EC021E030E03093090120938F
S11301700801C09204018091040190E00E94600192
S11301808091040190E00E948F018091040190E02D
S11301900E9449018091040190E00E9477010E942D
S11301A0DE028091080190910901892B09F458C05D
S11301B00E9402048093070183E00E94220490932A
S11301C0060180930501809107018431A0F4809198
S11301D00A0190910B0195958795892B61F40E94F2
S11301E0D30280910A0190910B01826090930B01DC
S11301F080930A0135C080910A0190910B019C0102
S1130200359527952130310571F42091070124316A
S113021050F08D7F90930B0180930A010E94C402D9
S11302200E94DE021DC020910501309106012A3F83
S1130230310540F480FD08C0816090930B018093E8
S11302400A010EC080FF0CC0209105013091060107
S11302502A3F310528F08E7F90930B0180930A0189
S113026061960FB6F894DEBF0FBECDBFDF91CF917C
S11302701F910F91FF90EF90DF90CF90BF90089562
S11302800E945D000F9A78940E94B2030E946A0053
S1130290FDCFBC01882777FD8095982F0E94C90B5C
S11302A020E030E048EC52E40E94330B20E030E0E0
S11302B04FE753E40E94E20C0E949B0B67BD089534
S11302C0BC01882777FD8095982F0E94C90B20E0F8
S11302D030E048EC52E40E94330B20E030E04FE77A
S11302E053E40E94E20C0E949B0B68BD0895BC017C
S11302F0882777FD8095982F0E94C90B20E030E075
S113030048EC52E40E94330B20E030E04FE753E422
S11303100E94E20C0E949B0B6093B3000895BC0101
S1130320882777FD8095982F0E94C90B20E030E044
S113033048EC52E40E94330B20E030E04FE753E4F2
S11303400E94E20C0E949B0B6093B4000895CF922C
S1130350DF92EF92FF920F931F93CF93DF93CDB76A
S1130360DEB72A970FB6F894DEBF0FBECDBF882341
S113037024F481950E94EA011EC018861F821A8601
S11303801986819590E0382F2227822B932B9A830C
S113039089839C838B836B01CE0107967C0102E0E9
S11303A010E09E012F5F3F4F42E050E067EE72E0A5
S11303B0CB010E94EF092A960FB6F894DEBF0FBE58
S11303C0CDBFDF91CF911F910F91FF90EF90DF9000
S11303D0CF900895CF92DF92EF92FF920F931F93E5
S11303E0CF93DF93CDB7DEB72A970FB6F894DEBF6D
S11303F00FBECDBF882324F481950E94A7011DC0A0
S113040018861F821A86198690E0382F2227822B9D
S1130410932B9A8389839C838B836B01CE010796EC
S11304207C0102E010E09E012F5F3F4F42E050E06C
S113043067EE72E0CB010E94EF092A960FB6F8949A
S1130440DEBF0FBECDBFDF91CF911F910F91FF9003
S1130450EF90DF90CF900895CF92DF92EF92FF92CA
S11304600F931F93CF93DF93CDB7DEB72A970FB6C1
S1130470F894DEBF0FBECDBF882324F481950E947B
S1130480780227C020E530E538872F8320EB30EB56
S11304903A87298790E0382F2227822B932B9A833F
S11304A089839C838B837E836D830F2EFCE8CF2E00
S11304B0D12CF02DCE0101967C0103E010E09E01C9
S11304C0295F3F4F42E050E067EE72E0CB010E94AB
S11304D0EF092A960FB6F894DEBF0FBECDBFDF91A9
S11304E0CF911F910F91FF90EF90DF90CF900895DF
S11304F0CF92DF92EF92FF920F931F93CF93DF93EC
S1130500CDB7DEB72A970FB6F894DEBF0FBECDBFC6
S1130510882324F481950E942C0227C020EB30EB21
S113052038872F8320E530E53A87298790E0382FF4
S11305302227822B932B9A8389839C838B837E83AC
S11305406D830F2EFCE8CF2ED12CF02DCE01019619
S11305507C0103E010E09E01295F3F4F42E050E040
S113056067EE72E0CB010E94EF092A960FB6F89469
S1130570DEBF0FBECDBFDF91CF911F910F91FF90D2
S1130580EF90DF90CF900895299A28982D9A2A9871
S1130590479A4698419A40980895189A199A089546
S11305A01A9A1D9A08950E94D0020E94CD020895BD
S11305B0369A379A0895309A319A08950E94D00253
S11305C00E94CD020E94DB020E94D8020895CF92BD
S11305D0DF92EF92FF920F931F93CF93DF93CDB7E8
S11305E0DEB728970FB6F894DEBF0FBECDBF8B01E0
S11305F08230910509F087C0299A28982D9A2A9863
S1130600479A4698419A4098FB018181D82E8823C5
S11306101CF4D1940E94CD026D2D772767FD70954F
S1130620872F972F0E94C90B20E030E048EC52E45A
S11306300E94330B20E030E04FE753E40E94E20CC9
S11306400E949B0B67BDF8018081D82E88231CF47F
S1130650D1940E94D0026D2D772767FD7095872F66
S1130660972F0E94C90B20E030E048EC52E40E942E
S1130670330B20E030E04FE753E40E94E20C0E9489
S11306809B0B68BDF8018381D82E88231CF4D19478
S11306900E94D8026D2D772767FD7095872F972FBD
S11306A00E94C90B20E030E048EC52E40E94330B76
S11306B020E030E04FE753E40E94E20C0E949B0BE1
S11306C06093B300F8018281182F88231CF41195DC
S11306D00E94DB02612F772767FD7095872F972F84
S11306E00E94C90B20E030E048EC52E40E94330B36
S11306F020E030E04FE753E40E94E20C0E949B0BA1
S11307006093B40020C00397F1F4FB0180819181D0
S11307109E838D838281938198878F831A82198225
S11307201C821B82C480D580CE0101967C0102E02C
S113073010E09E012B5F3F4F42E050E067EE72E015
S1130740CB010E94EF0928960FB6F894DEBF0FBEC6
S1130750CDBFDF91CF911F910F91FF90EF90DF906C
S1130760CF90089517BC18BC1092B3001092B40037
S11307700895209A219A229A229A299A28982D9AA1
S11307802A98239A249A84B5806884BD84B58F7B83
S113079084BD84B5806284BD84B58F7E84BD84B5F8
S11307A0836084BD17BC18BC16BC83E085BD089566
S11307B03E9A3F9A389A399A479A4698419A40986D
S11307C0579A569AE0EBF0E08081806880838081BC
S11307D08F7B808380818062808380818F7E808311
S11307E08081836080831092B3001092B4001092D1
S11307F0B200E1EBF0E080818C7F808380818460B3
S113080080830895209142018091430190E0A0E00B
S1130810B0E0820F911DA11DB11D20914401820FF2
S1130820911DA11DB11D20914501820F911DA11D96
S1130830B11DB695A79597958795B695A795979564
S113084087950895CF93382F813108F030E1332311
S1130850A9F140E050E020E060E070E0CB01A0E1CD
S1130860B0E0E0910D01F0E0E41BF50B6AF0E091DB
S11308700D01F0E0E41BF50BEE0FFF1FE25EFE4FEF
S11308800190F081E02D0EC0C0910D01FD01E41B2B
S1130890F50BEC0FF11DEE0FFF1FE25EFE4F019012
S11308A0F081E02D6E0F7F1F811D911DEF2B09F04C
S11308B02F5F4F5F5F4F4317A0F204C020E060E05A
S11308C070E0CB0130E040E050E00E94450DC901EA
S11308D0CF910895CF93DF939C0140E050E0FA015B
S11308E0EE0FFF1FE25EFE4F118210824F5F5F4FDB
S11308F040315105A1F710924E0110924F01109210
S11309005001109251015098519A599AC2ECD0E07A
S113091088818F738883E0ECF0E080818D7F808311
S1130920C901AA2797FDA095BA2F880F991FAA1F5E
S1130930BB1F880F991FAA1FBB1F9C01AD01220F6B
S1130940331F441F551F220F331F441F551F60E0E0
S113095072E18AE790E00E94670DCA01B901615013
S11309607109810991090E94C90B0E94A80C272FC3
S1130970332727FD3A952093C5006093C400E1EC2A
S1130980F0E080E1808388818660888380818B7F2A
S113099080838881877F888388818F7C8883808116
S11309A080688083DF91CF910895EEE7F0E0808145
S11309B08F608083ECE7F0E08081806480838081B5
S11309C08F7780838081807E8083EAE7F0E0808176
S11309D08860808380818068808380818760808351
S11309E08081806480830895089809980A980B98F8
S11309F00E94D50480E895E20E946A0408951F923B
S1130A000F920FB60F9211242F933F934F935F933E
S1130A106F937F938F939F93AF93BF93CF93DF9302
S1130A20EF93FF93609178008091790070E0782BC8
S1130A306031710510F460E170E080911201C091A1
S1130A401101D0E094E0899FC00DD11D112480E0F4
S1130A5090E00E94C70B20E030E040E351E40E94A4
S1130A60CE0A9B01AC0160E070EC81E095E40E9449
S1130A70330B20E030E040E05FE30E94CF0A0E94A5
S1130A80040C0E949B0BFE01E25CFE4F608380819C
S1130A90843028F484E0FE01E25CFE4F8083FE0192
S1130AA0E25CFE4F80818F3110F08EE18083809173
S1130AB011018F5F8093110180911101843039F409
S1130AC010921101809112018F5F80931201809125
S1130AD01201843011F410921201ECE7F0E08081ED
S1130AE0807F8083808190911201892B8083EAE743
S1130AF0F0E0808180648083FF91EF91DF91CF915A
S1130B00BF91AF919F918F917F916F915F914F9121
S1130B103F912F910F900FBE0F901F9018951F9229
S1130B200F920FB60F9211244F925F927F928F9281
S1130B309F92AF92BF92CF92EF92FF921F932F9307
S1130B403F934F935F936F937F938F939F93AF9351
S1130B50BF93CF93DF93EF93FF931091C6001235A9
S1130B6039F482E580934E0181E080930E01A5C0A3
S1130B7080914E01823509F07CC080910E01843051
S1130B8009F077C01D3009F074C00F2EFFE4EF2E7A
S1130B90F1E0FF2EF02DF70160810F2EF0E54F2ECE
S1130BA0F1E05F2EF02DF2017080C1E5D1E0C88044
S1130BB070E080E090E00E94C90B20E030E048EC57
S1130BC052E40E94E20C4B015C01672D70E080E06E
S1130BD090E00E94C90B20E030E040E251E40E9422
S1130BE0E20C9B01AC01C501B4010E94CF0A4B0188
S1130BF05C016C2D70E080E090E00E94C90B9B01C9
S1130C00AC01C501B4010E94CF0A23E333E34BECEA
S1130C1051E40E94E20C20E030E040E05FE30E94F7
S1130C20CF0A0E94040C0E949B0BE0910D01F0E09E
S1130C30EE0FFF1FE25EFE4F71836083709310011D
S1130C4060930F0180910D018F5F80930D0180915E
S1130C500D018F7080930D0110924E01F7011082E7
S1130C60F2011082188210920E0180910C01811100
S1130C70599880910E01843050F010924E011092D8
S1130C804F01109250011092510110920E01809167
S1130C904E01823591F4812F90E0C0970A9768F451
S1130CA0E0910E01F0E080ED810FE25BFE4F808366
S1130CB080910E018F5F80930E01FF91EF91DF9180
S1130CC0CF91BF91AF919F918F917F916F915F91E0
S1130CD04F913F912F911F91FF90EF90CF90BF9034
S1130CE0AF909F908F907F905F904F900F900FBE2A
S1130CF00F901F901895282F2F7730E0F901EE0FF1
S1130D00FF1FEE5AFE4F91819F3FB1F1F901EE0FA3
S1130D10FF1FEE5AFE4F618190E041814F3F71F118
S1130D20F901EE0FFF1FEE5AFE4F4181552747FD93
S1130D305095262F30E04217530711F5019666E0CF
S1130D409C012F773327F901EE0FFF1FEE5AFE4F58
S1130D5071817F3FB9F0F901EE0FFF1FEE5AFE4F8C
S1130D602181332727FD30952417350769F4615015
S1130D7001966111E5CF0AC080E0089580E00895EE
S1130D8080E0089580E0089580E0089581E008956A
S1130D90CF92DF92EF92FF920F931F93CF93DF9343
S1130DA0CDB7DEB727970FB6F894DEBF0FBECDBF21
S1130DB0E0911501EF77F0E0EE0FFF1FEE5AFE4FC2
S1130DC02081E0911501F0E03196EF77FF27EE0FD7
S1130DD0FF1FEE5AFE4F3081E0911501F0E032968C
S1130DE0EF77FF27EE0FFF1FEE5AFE4F4081E09191
S1130DF01501F0E03396EF77FF27EE0FFF1FEE5A51
S1130E00FE4F8081E0911501F0E03496EF77FF27E3
S1130E10EE0FFF1FEE5AFE4FE080F12CF82AE0910E
S1130E201501F0E03596EF77FF27EE0FFF1FEE5A1E
S1130E30FE4F8081E0911501F0E03696EF77FF27B1
S1130E40EE0FFF1FEE5AFE4F008110E0182B80E0DA
S1130E5090E0EFEFFFEF5FEFA09115016C01CA0E78
S1130E60D11CD601AF77BB27AA0FBB1FAE5ABE4F0A
S1130E70AC91EA27AE2FA295AE270A2EA695A69589
S1130E80A0250A2EA695A025A7700E2EEF2FA695B5
S1130E900794A795F02DEA270694A795F025EA274D
S1130EA0A09115016C01CA0ED11CD601AF77BB27E6
S1130EB0AA0FBB1FAE5ABE4F11965C9301968730A2
S1130EC0910509F0C9CFEF2B21F481E0FB01808368
S1130ED002C0FB011082FD82EC821F830E835E2D13
S1130EE06D81702F8F8190E027960FB6F894DEBF46
S1130EF00FBECDBFDF91CF911F910F91FF90EF9067
S1130F00DF90CF90089580E090E02FEFFC01EE0F8A
S1130F10FF1FDF01AE5ABE4F11962C93EE5AFD4FC0
S1130F202183108201968038910581F71092130174
S1130F3010921401109219011092180108950F9340
S1130F401F93CF93DF938C010E9483075298539A87
S1130F50CAECD0E088818F738883E8ECF0E080816C
S1130F608D7F8083C801AA2797FDA095BA2F880F8B
S1130F70991FAA1FBB1F880F991FAA1FBB1F9C0183
S1130F80AD01220F331F441F551F220F331F441F6F
S1130F90551F60E072E18AE790E00E94670DCA0184
S1130FA0B90161507109810991090E94C90B0E941C
S1130FB0A80C272F332727FD3A952093CD00609363
S1130FC0CC00E9ECF0E088E1808388818660888346
S1130FD080818B7F80838881877F888388818F7CD1
S1130FE08883808180688083808180648083DF91AE
S1130FF0CF911F910F9108958091C80085FF31C052
S1131000F894E0911401F0E0EE0FFF1FEE5AFD4F4B
S113101081818F3F29F1E0911401F0E0EE0FFF1F71
S1131020EE5AFD4F80818093CE00E0911401F0E0F0
S1131030EE0FFF1FEE5AFD4F8FEF8183E0911401F5
S1131040F0E0EE0FFF1FEE5AFD4F10828091140165
S11310508F5F80931401809114018F778093140122
S1131060789408950F931F93CF93DF93CDB7DEB792
S113107029970FB6F894DEBF0FBECDBF09831A833C
S11310802B833C834D835E836F83972F7887898777
S1131090E09113014E2F50E0EF77F0E0EE0FFF1FC9
S11310A0EE5AFD4F00830183FA013196EF77FF2753
S11310B0EE0FFF1FEE5AFD4F26E0208301839A01B5
S11310C02E5F3F4FFE013296BE01685F7F4FD9010C
S11310D0AF77BB271191AA0FBB1FAE5ABD4F1C930C
S11310E011960C932F5F3F4FE617F70781F7FA012C
S11310F03896EF77FF27EE0FFF1FEE5AFD4F8083E0
S11311000183FA013996EF77FF27EE0FFF1FEE5A9E
S1131110FD4F90830183BA01665F7F4F80E090E0CA
S11311202FEF3FEFE0911301DC01AE0FB11DFD0184
S1131130EF77FF27EE0FFF1FEE5AFD4FE0812E27BA
S1131140E22FE295E2270E2EE695E695E0250E2E97
S1131150E695E025E770022E232FE6950794E795A0
S1131160302D2E270694E79530252E2701968A30B8
S11311709105C1F6FB01EF77FF27EE0FFF1FEE5A33
S1131180FD4F20830183FA013B96EF77FF27EE0F93
S1131190FF1FEE5AFD4F30830183445F5F4F4F774B
S11311A0409313010E94FC0729960FB6F894DEBF02
S11311B00FBECDBFDF91CF911F910F9108950F9373
S11311C01F93CF93DF93CDB7DEB72F970FB6F89465
S11311D0DEBF0FBECDBF8C01FE01389687E0DF0174
S11311E01D928A95E9F7F8011082809115010E94F9
S11311F07B068823C9F080911501BE01615F7F4F92
S11312000E94C806288739874A875B876C877D8751
S11312108E878F85882321F081E0D8018C932BC0A1
S113122082E0F801808327C08091150190E0079740
S11312308038910504F58091150187500E947B0642
S11312408823C9F080911501BE01615F7F4F8750EB
S11312500E94C806288739874A875B876C877D8701
S11312608E878F85882321F081E0D8018C9303C079
S113127082E0F801808387E0FE013896DE01119652
S113128001900D928A95E1F729813A814B815C8125
S11312906D817E818F8190E02F960FB6F894DEBF2A
S11312A00FBECDBFDF91CF911F910F9108951F9273
S11312B00F920FB60F9211248F939F93EF93FF9386
S11312C08091CE009091170191111AC0E0911801FC
S11312D0F0E0EE0FFF1FEE5AFE4F8183E0911801FC
S11312E0F0E0EE0FFF1FEE5AFE4F808391E09093E3
S11312F017018093160180911801809315011DC078
S1131300E0911801F0E090911601EE0FFF1FEE5AE4
S1131310FE4F9183E0911801F0E0EE0FFF1FEE5AAB
S1131320FE4F8083809117018F5F80931701809116
S11313301701873011F410921701809118018F5F03
S113134080931801809118018F7780931801FF9181
S1131350EF919F918F910F900FBE0F901F90189552
S11313601F920F920FB60F9211248F93EF93FF9356
S1131370E0911401F0E0EE0FFF1FEE5AFD4F818162
S11313808F3F29F1E0911401F0E0EE0FFF1FEE5AB8
S1131390FD4F80818093CE00E0911401F0E0EE0FC8
S11313A0FF1FEE5AFD4F1082E0911401F0E0EE0FA2
S11313B0FF1FEE5AFD4F8FEF8183809114018F5FE1
S11313C080931401809114018F7780931401FF910D
S11313D0EF918F910F900FBE0F901F901895AF92C1
S11313E0BF92CF92DF92EF92FF920F931F93CF930E
S11313F0DF935C01CA01A901F89470931D01609305
S11314001C0110931B0100931A010115110591F0A1
S1131410CE2DDF2DA0E0B0E0699179919D01220FDE
S1131420331FF901EE5AFC4F718360831196A017A4
S1131430B10791F7860120E030E00093000110939A
S113144001012093020130930301BA01F5010995CA
S1131450179A7894DF91CF911F910F91FF90EF909D
S1131460DF90CF90BF90AF900895E0E8F0E08081E6
S11314708F71808380818C7F8083E1E8F0E08081BC
S11314808860808380818F7E808380818B7F80834E
S1131490808183608083109285001092840082EEA4
S11314A094E09093890080938800EFE6F0E08081D7
S11314B08260808308951F920F920FB60F921124B9
S11314C02F933F934F935F936F937F938F939F9348
S11314D0AF93BF93EF93FF9380910001909101012B
S11314E0A0910201B0910301892B8A2B8B2B09F166
S11314F08091000190910101A0910201B09103013A
S11315008F399648A140B105A1F0809100019091D6
S11315100101A0910201B09103010197A109B10950
S11315208093000190930101A0930201B093030101
S113153024C08091000190910101A0910201B09119
S11315400301892B8A2B8B2BC1F48FE996E8A1E048
S1131550B0E08093000190930101A0930201B09345
S1131560030180911A0190911B01E0911C01F091FB
S11315701D0162E573E009951798FF91EF91BF9102
S1131580AF919F918F917F916F915F914F913F9117
S11315902F910F900FBE0F901F9018955058BB2796
S11315A0AA270ED084C175D130F07AD120F031F45D
S11315B09F3F11F41EF46AC10EF4E095E7FB37C1B6
S11315C0E92F86D180F3BA1762077307840795075A
S11315D018F071F49EF5B5C10EF4E0950B2EBA2FF8
S11315E0A02D0B01B90190010C01CA01A001112425
S11315F0FF27591B99F0593F50F4503E68F11A16D1
S1131600F040A22F232F342F4427585FF3CF469561
S113161037952795A795F0405395C9F77EF41F1683
S1131620BA0B620B730B840BBAF09150A1F0FF0F4D
S1131630BB1F661F771F881FC2F70EC0BA0F621F39
S1131640731F841F48F4879577956795B795F79529
S11316509E3F08F0B3CF9395880F08F09927EE0FBB
S11316609795879508950CD022C11AD140F011D1D5
S113167030F021F45F3F19F0DAC0511163C106C1A3
S113168027D198F39923C9F35523B1F3951B550B2F
S1131690BB27AA2762177307840738F09F5F5F4F41
S11316A0220F331F441FAA1FA9F333D00E2E3AF082
S11316B0E0E830D091505040E695001CCAF729D09C
S11316C0FE2F27D0660F771F881FBB1F26173707EB
S11316D04807AB07B0E809F0BB0B802DBF01FF271B
S11316E093585F4F2AF09E3F510568F0A0C02AC16D
S11316F05F3FECF3983EDCF3869577956795B79555
S1131700F7959F5FC9F7880F911D9695879597F96F
S11317100895E1E0660F771F881FBB1F62177307E8
S11317208407BA0720F0621B730B840BBA0BEE1FFD
S113173088F7E0950895D4D088F09F5790F0B92F9A
S11317409927B751A0F0D1F0660F771F881F991F12
S11317501AF0BA95C9F712C0B13081F0F2D0B1E0F5
S11317600895EFC0672F782F8827B85F39F0B93F05
S1131770CCF3869577956795B395D9F73EF4909514
S11317808095709561957F4F8F4F9F4F0895E89492
S113179009C097FB3EF490958095709561957F4FB5
S11317A08F4F9F4F9923A9F0F92F96E9BB27939563
S11317B0F695879577956795B795F111F8CFFAF473
S11317C0BB0F11F460FF1BC06F5F7F4F8F4F9F4FA4
S11317D016C0882311F096E911C0772321F09EE802
S11317E0872F762F05C0662371F096E8862F70E068
S11317F060E02AF09A95660F771F881FDAF7880F42
S11318009695879597F9089585D080F09F3740F491
S113181091110EF097C060E070E080E89FEB0895AE
S113182026F41B16611D711D811D07C021C097F987
S11318309F6780E870E060E00895882371F477235F
S113184021F09850872B762F07C0662311F499272F
S11318500DC09051862B70E060E02AF09A95660FD7
S1131860771F881FDAF7880F9695879597F908955B
S11318709F3F31F0915020F4879577956795B79500
S1131880880F911D9695879597F908959FEF80ECA1
S1131890089500240A9416161706180609060895D2
S11318A000240A9412161306140605060895092E38
S11318B00394000C11F4882352F0BB0F40F4BF2BA7
S11318C011F460FF04C06F5F7F4F8F4F9F4F0895E7
S11318D057FD9058440F551F59F05F3F71F04795DD
S11318E0880F97FB991F61F09F3F79F087950895C2
S11318F0121613061406551FF2CF4695F1DF08C0E1
S1131900161617061806991FF1CF869571056105FD
S113191008940895E5DFA0F0BEE7B91788F4BB2763
S11319209F3860F41616B11D672F782F8827985FAB
S1131930F7CF869577956795B11D93959639C8F33A
S11319400895E894BB2766277727CB0197F9089574
S1131950C7DFA8F19E57A8F1985160F039F198308B
S113196070F5092E9927660F771F881F991F0A940F
S1131970D1F71CC0BB27993F4CF4B111B1E0B62B91
S1131980672F782F8827985FB1F708C086957795D9
S11319906795B79508F4B1609395C1F7BB0F30F420
S11319A011F460FF03C06F5F7F4F8F4F3EF490953B
S11319B08095709561957F4F8F4F9F4F08956894E0
S11319C0C1CFBFCF0BD073CF64DF28F069DF18F02D
S11319D0952309F02CCF5ACF1124B4CF79DFA0F38B
S11319E0959FD1F3950F50E0551F629FF001729FB0
S11319F0BB27F00DB11D639FAA27F00DB11DAA1FCF
S1131A00649F6627B00DA11D661F829F2227B00D1B
S1131A10A11D621F739FB00DA11D621F839FA00DA6
S1131A20611D221F749F3327A00D611D231F849FF6
S1131A30600D211D822F762F6A2F11249F5750404D
S1131A408AF0E1F088234AF0EE0FFF1FBB1F661FE8
S1131A50771F881F91505040A9F79E3F510570F0A1
S1131A60E6CE70CF5F3FECF3983EDCF38695779536
S1131A706795B795F795E7959F5FC1F7FE2B880F9C
S1131A80911D9695879597F90895A1E21A2EAA1BA0
S1131A90BB1BFD010DC0AA1FBB1FEE1FFF1FA2171A
S1131AA0B307E407F50720F0A21BB30BE40BF50B17
S1131AB0661F771F881F991F1A9469F760957095A0
S1131AC0809590959B01AC01BD01CF010895052E31
S1131AD097FB1EF400940E947E0D57FD07D00E94D0
S1131AE0450D07FC03D04EF40C947E0D50954095A3
S1131AF0309521953F4F4F4F5F4F089590958095B6
S1131B00709561957F4F8F4F9F4F0895F894FFCF45
S1071B109F860100A7
S9030000FC
