S019000054657374325F61746D65676133323450412E7372656341
S11300000C943E000C945B000C945B000C945B001D
S11300100C945B000C945B000C945B000C945B00F0
S11300200C945B000C945B000C945B000C945B00E0
S11300300C945B000C945B000C945B000C945B00D0
S11300400C945B000C945B000C945B000C945B00C0
S11300500C9475040C945B000C945B000C945B0092
S11300600C9475030C945B000C945B000C945B0083
S11300700C9466070C945B000C94C00711241FBEFB
S1130080CFEFD8E0DEBFCDBF11E0A0E0B1E0ECEEF1
S1130090F4E102C005900D92A030B107D9F723E036
S11300A0A0E0B1E001C01D92AC34B207E1F70E94B8
S11300B01D010C94740A0C9400008F929F92AF92CD
S11300C0BF92CF92DF92EF92FF920F931F93CF9341
S11300D0DF93CDB7DEB728970FB6F894DEBF0FBE17
S11300E0CDBFCE0101960E94EE068981813081F454
S11300F0042F112707FD1095C8010E947101C80142
S11301000E94A001C8010E945A01C8010E948801EE
S113011085E00E9460026B017C010E9422024B0177
S11301205C0120E030E040E751E40E942E01882386
S1130130A4F4809100019091010195958795892BF4
S113014061F40E94C70180910001909101018260D5
S1130150909301018093000122C00091000110914D
S11301600101C801959587950197C9F420E030E015
S113017040E751E4C501B4010E94560188237CF094
S11301800D7F10930101009300010E94B8010E94A9
S1130190C4010E94CF010E94C1010E94CC0120E051
S11301A030E048EC51E4C701B6010E942E018823D7
S11301B094F4009100011091010100FD12C00E940D
S11301C0C701809100019091010181609093010128
S11301D0809300011FC0009100011091010100FFF4
S11301E019C020E030E048EC51E4C701B6010E9498
S11301F0560188237CF00E7F1093010100930001C7
S11302000E94B8010E94C4010E94CF010E94C10152
S11302100E94CC0128960FB6F894DEBF0FBECDBF66
S1130220DF91CF911F910F91FF90EF90DF90CF90CE
S1130230BF90AF909F908F90089580E895E20E94C0
S11302404C050E94D9010E94F8010E946A030F9A8A
S113025078940E94D2010E945D00FDCF03D008F47F
S113026081E00895990F0008550FAA0BE0E8FEEF0E
S113027016161706E807F907C0F012161306E40766
S1130280F50798F0621B730B840B950B39F40A265F
S113029061F0232B242B252B21F408950A2609F43D
S11302A0A140A6958FEF811D811D0895DBDF08F421
S11302B08FEF0895BC01882777FD8095982F0E94C1
S11302C0FB0820E030E048EC52E40E94650820E09E
S11302D030E04FE753E40E94C1090E94CD0867BD96
S11302E00895BC01882777FD8095982F0E94FB080C
S11302F020E030E048EC52E40E94650820E030E061
S11303004FE753E40E94C1090E94CD0868BD0895D7
S1130310BC01882777FD8095982F0E94FB0820E078
S113032030E048EC52E40E94650820E030E04FE7FA
S113033053E40E94C1090E94CD086093B30008955C
S1130340BC01882777FD8095982F0E94FB0820E048
S113035030E048EC52E40E94650820E030E04FE7CA
S113036053E40E94C1090E94CD086093B40008952B
S1130370299A28982D9A2A98479A4698419A4098FB
S11303800895189A199A08951A9A1D9A08950E9420
S1130390C4010E94C1010895369A379A0895309A8B
S11303A0319A089517BC18BC1092B3001092B4008F
S11303B00895209A219A229A229A299A28982D9A65
S11303C02A98239A249A84B5806884BD84B58F7B47
S11303D084BD84B5806284BD84B58F7E84BD84B5BC
S11303E0836084BD17BC18BC16BC83E085BD08952A
S11303F03E9A3F9A389A399A479A4698419A409831
S1130400579A569AE0EBF0E080818068808380817F
S11304108F7B808380818062808380818F7E8083D4
S11304208081836080831092B3001092B400109294
S1130430B200E1EBF0E080818C7F80838081846076
S113044080830895CF93DF931092090110920A01DB
S113045010920B0110920C01C0E0D0E0FE01EE0FEF
S1130460FF1FEE0FFF1FE05CFE4F608171818281F0
S113047093812091090130910A0140910B0150911F
S11304800C010E9401086093090170930A01809392
S11304900B0190930C012196C330D105F9F66091BC
S11304A0090170910A0180910B0190910C0120E0E7
S11304B030E040E450E40E946508DF91CF91089554
S11304C06F927F928F929F92AF92BF92CF92DF9260
S11304D0EF92FF920F931F93CF93DF93782E8AE0CE
S11304E0871520F40F2EFAE07F2EF02D772009F4E3
S11304F044C0C0E0D0E0612C812C912C54010AE06E
S113050010E02091030130E02C1B3D0B82F0E091C0
S11305100301F0E0EC1BFD0BEE0FFF1FEE0FFF1FBE
S1130520EC5EFE4FC080D180E280F38011C08091E8
S11305300301F801EC1BFD0BE80FF11DEE0FFF1F8B
S1130540EE0FFF1FEC5EFE4FC080D180E280F3808F
S1130550A7019601C501B4010E9401084B015C0189
S113056020E030E0A901C701B6010E942E018111EB
S113057063942196C71528F204C0612C812C912C18
S11305805401662D70E080E090E00E94F9089B0120
S1130590AC01C501B4010E946508DF91CF911F91A0
S11305A00F91FF90EF90DF90CF90BF90AF909F900E
S11305B08F907F906F900895CF93DF939C0140E0DC
S11305C050E0FA01EE0FFF1FEE0FFF1FEC5EFE4F2F
S11305D010821182128213824F5F5F4F4A3051059D
S11305E081F710923C0110923D0110923E0110924D
S11305F03F015098519A599AC2ECD0E088818F7388
S11306008883E0ECF0E080818D7F8083C901AA2794
S113061097FDA095BA2F880F991FAA1FBB1F880F9B
S1130620991FAA1FBB1F9C01AD01220F331F441F3A
S1130630551F220F331F441F551F60E072E18AE7E4
S113064090E00E94240ACA01B9016150710981092C
S113065091090E94FB080E948709272F332727FD51
S11306603A952093C5006093C400E1ECF0E080E18A
S1130670808388818660888380818B7F8083888162
S1130680877F888388818F7C88838081806880834A
S1130690DF91CF910895ECE7F0E08081806480835E
S11306A080818F7780838081807E8083EAE7F0E099
S11306B08081806880838081886080838081876076
S11306C08083AEE7B0E08C918F608C9380818064EE
S11306D080830895089809980A980B980E944B0300
S11306E080E895E20E94DC0208951F920F920FB6F3
S11306F00F9211242F933F934F935F936F937F93A4
S11307008F939F93AF93BF93CF93DF93EF93FF9315
S1130710409178008091790050E0582B4031510588
S113072010F440E150E0E0910D01F0910E019F01C1
S1130730ABEABAEA0E94430AEC01D695C795CE010A
S1130740880F991FC80FD91F2C1B3D0BE901BA0153
S113075080E090E00E94F90820E030E040E351E4BA
S11307600E9400089B01AC0160E070EC81E095E41C
S11307700E946508CC0FDD1FCC0FDD1FC05CDE4F6F
S1130780688379838A839B8340910D0150910E0184
S11307909A01ABEABAEA0E94430A969587959C01AE
S11307A0220F331F820F931F9A01281B390BF90163
S11307B0EE0FFF1FEE0FFF1FE05CFE4F60817181A3
S11307C08281938120E030E040E850E40E942E01D1
S11307D0882314F540910D0150910E019A01ABEA62
S11307E0BAEA0E94430A969587959C01220F331F0B
S11307F0820F931F9A01281B390BF901EE0FFF1F7B
S1130800EE0FFF1FE05CFE4F80E090E0A0E8B0E454
S113081080839183A283B38340910D0150910E0193
S11308209A01ABEABAEA0E94430A969587959C011D
S1130830220F331F820F931F9A01281B390BF901D2
S1130840EE0FFF1FEE0FFF1FE05CFE4F6081718112
S11308508281938120E030E040EF51E40E94560110
S1130860181614F540910D0150910E019A01ABEA4E
S1130870BAEA0E94430A969587959C01220F331F7A
S1130880820F931F9A01281B390BF901EE0FFF1FEA
S1130890EE0FFF1FE05CFE4F80E090E0A0EFB1E4BC
S11308A080839183A283B38380910D0190910E0183
S11308B0019690930E0180930D01EAE7F0E08081A8
S11308C080648083FF91EF91DF91CF91BF91AF91CD
S11308D09F918F917F916F915F914F913F912F9154
S11308E00F900FBE0F901F9018951F920F920FB686
S11308F00F921124CF92DF92EF92FF921F932F93C6
S11309003F934F935F936F937F938F939F93AF9393
S1130910BF93CF93DF93EF93FF93079AC091C600E1
S1130920C23539F482E580933C0181E0809304016F
S11309309BC080913C01823509F063C08091040121
S1130940843009F05EC0CD3009F05BC060913D0198
S113095010913E01D0913F0170E080E090E00E9450
S1130960FB0820E030E048EC52E40E94C1096B012E
S11309707C01612F70E080E090E00E94FB0820E0A1
S113098030E040E251E40E94C1099B01AC01C7017F
S1130990B6010E9401086B017C016D2F70E080E0BC
S11309A090E00E94FB089B01AC01C701B6010E94C4
S11309B001082CE53FE842E250E40E94C109E091BD
S11309C00301F0E0EE0FFF1FEE0FFF1FEC5EFE4F82
S11309D0608371838283938360930501709306011E
S11309E08093070190930801809103018F5F8093A6
S11309F00301809103018A3040F11092030125C064
S1130A00599880910401843050F010923C01109266
S1130A103D0110923E0110923F0110920401809119
S1130A203C01823509F58C2F90E0C0970A97E0F4D9
S1130A30E0910401F0E0C053E45CFE4FC083809178
S1130A4004018F5F809304010FC010923C01109247
S1130A503D0110923E0110923F01109204018091D9
S1130A6002018111CDCFCDCFFF91EF91DF91CF91D5
S1130A70BF91AF919F918F917F916F915F914F91B2
S1130A803F912F911F91FF90EF90DF90CF900F90A7
S1130A900FBE0F901F901895CF93DF939C0140E0F9
S1130AA050E08FEFFA01EE0FFF1FDF01A45BBE4F92
S1130AB011968C93E45BFD4F818310824F5F5F4FEF
S1130AC04038510579F75298539ACAECD0E088819E
S1130AD08F738883E8ECF0E080818D7F8083C90187
S1130AE0AA2797FDA095BA2F880F991FAA1FBB1F8D
S1130AF0880F991FAA1FBB1F9C01AD01220F331F32
S1130B00441F551F220F331F441F551F60E072E11D
S1130B108AE790E00E94240ACA01B9016150710970
S1130B20810991090E94FB080E948709272F332716
S1130B3027FD3A952093CD006093CC00E9ECF0E0DA
S1130B4088E1808388818660888380818B7F80832D
S1130B508881877F888388818F7C8883808180686F
S1130B608083808180648083DF91CF910895282FD2
S1130B702F7730E0F901EE0FFF1FE45BFE4F918108
S1130B809F3F09F446C0F901EE0FFF1FE45BFE4FDF
S1130B90618190E09C012F773078F901EE0FFF1FFF
S1130BA0E45BFE4F41814F3FB1F1F901EE0FFF1FAE
S1130BB0E45BFE4F4181552747FD5095262F30E0D9
S1130BC04217530751F5019666E09C012F77307860
S1130BD0332334F42150310920683F6F2F5F3F4F96
S1130BE0F901EE0FFF1FE45BFE4F71817F3FB9F007
S1130BF0F901EE0FFF1FE45BFE4F2181332727FD30
S1130C0030952417350769F4615001966111DDCFE1
S1130C100AC080E0089580E0089580E0089580E0AF
S1130C20089580E0089581E00895AF92BF92CF9235
S1130C30DF92EF92FF920F931F93CF93DF93CDB781
S1130C40DEB727970FB6F894DEBF0FBECDBFE09195
S1130C501001EF77F0E0EE0FFF1FE45BFE4F208101
S1130C60E0911001F0E03196EF77F078EE0FFF1F7E
S1130C70E45BFE4F3081E0911001F0E03296EF77B3
S1130C80F078EE0FFF1FE45BFE4F4081E09110010E
S1130C90F0E03396EF77F078EE0FFF1FE45BFE4F42
S1130CA0C080E0911001F0E03496EF77F078EE0F19
S1130CB0FF1FE45BFE4F8081DD24C7FCD094DC2C55
S1130CC0CC24992787FD9095C82AD92AE091100150
S1130CD0F0E03596EF77F078EE0FFF1FE45BFE4F00
S1130CE0E080E0911001F0E03696EF77F078EE0FB7
S1130CF0FF1FE45BFE4F8081FF24E7FCF094FE2C91
S1130D00EE24992787FD9095E82AF92A80E090E05F
S1130D100FEF1FEF5FEFA0911001FC015C01AA0E21
S1130D20B11CD501AF77B078BB2324F41197A06828
S1130D30BF6F1196AA0FBB1FA45BBE4FAC910A27CD
S1130D40A02FA295A0270A2EA695A695A0250A2E27
S1130D50A695A025A770002E012FA6950794A79508
S1130D60102D0A270694A79510250A27A091100193
S1130D70EA0FF11DEF77F078FF2324F43197E06850
S1130D80FF6F3196EE0FFF1FE45BFE4F5183019618
S1130D908730910509F0BFCF012B21F481E0FB01DD
S1130DA0808302C0FB011082DD82CC82FF82EE824E
S1130DB05C2D6D817E2D8F8190E027960FB6F8947F
S1130DC0DEBF0FBECDBFDF91CF911F910F91FF907A
S1130DD0EF90DF90CF90BF90AF9008950F931F9343
S1130DE0CF93DF93CDB7DEB72F970FB6F894DEBF5E
S1130DF00FBECDBF8C01FE01389687E0DF011D9246
S1130E008A95E9F7F8011082809110010E94B705D4
S1130E108823C9F080911001BE01615F7F4F0E9459
S1130E201506288739874A875B876C877D878E8775
S1130E308F85882321F081E0D8018C932BC082E038
S1130E40F801808327C08091100190E007978038D3
S1130E50910504F58091100187500E94B7058823FD
S1130E60C9F080911001BE01615F7F4F87500E94DD
S1130E701506288739874A875B876C877D878E8725
S1130E808F85882321F081E0D8018C9303C082E010
S1130E90F801808387E0FE013896DE011196019007
S1130EA00D928A95E1F729813A814B815C816D81AC
S1130EB07E818F8190E02F960FB6F894DEBF0FBE2F
S1130EC0CDBFDF91CF911F910F9108951F920F9283
S1130ED00FB60F9211248F939F93EF93FF938091FA
S1130EE0CE009091120191111AC0E0911301F0E02B
S1130EF0EE0FFF1FE45BFE4F8183E0911301F0E0EE
S1130F00EE0FFF1FE45BFE4F808391E0909312018C
S1130F108093110180911301809310011DC0E09111
S1130F201301F0E090911101EE0FFF1FE45BFE4FFF
S1130F309183E0911301F0E0EE0FFF1FE45BFE4F9D
S1130F408083809112018F5F80931201809112013E
S1130F50873011F410921201809113018F5F8093F6
S1130F60130180911301882314F410921301FF914B
S1130F70EF919F918F910F900FBE0F901F90189536
S1130F801F920F920FB60F9211248F93EF93FF933A
S1130F90E0910F01F0E0EE0FFF1FE45BFD4F818154
S1130FA08F3F31F1E0910F01F0E0EE0FFF1FE45BA2
S1130FB0FD4F80818093CE00E0910F01F0E0EE0FB1
S1130FC0FF1FE45BFD4F1082E0910F01F0E0EE0F94
S1130FD0FF1FE45BFD4F8FEF818380910F018F5FD3
S1130FE080930F0180910F01813810F010920F014E
S1130FF0FF91EF918F910F900FBE0F901F90189556
S11310005058BB27AA270ED048C139D130F03ED161
S113101020F031F49F3F11F41EF42EC10EF4E0953C
S1131020E7FB24C1E92F4AD180F3BA17620773079B
S11310308407950718F071F49EF562C10EF4E095EB
S11310400B2EBA2FA02D0B01B90190010C01CA017E
S1131050A0011124FF27591B99F0593F50F4503E29
S113106068F11A16F040A22F232F342F4427585F1B
S1131070F3CF469537952795A795F0405395C9F733
S11310807EF41F16BA0B620B730B840BBAF09150EB
S1131090A1F0FF0FBB1F661F771F881FC2F70EC08A
S11310A0BA0F621F731F841F48F48795779567955D
S11310B0B795F7959E3F08F0B3CF9395880F08F046
S11310C09927EE0F9795879508950CD0E6C0DED04A
S11310D040F0D5D030F021F45F3F19F0C7C0511172
S11310E010C1CAC0EBD098F39923C9F35523B1F3C7
S11310F0951B550BBB27AA2762177307840738F083
S11311009F5F5F4F220F331F441FAA1FA9F333D0E1
S11311100E2E3AF0E0E830D091505040E695001C95
S1131120CAF729D0FE2F27D0660F771F881FBB1F51
S1131130261737074807AB07B0E809F0BB0B802D2B
S1131140BF01FF2793585F4F2AF09E3F510568F077
S11311508DC0D7C05F3FECF3983EDCF3869577955E
S11311606795B795F7959F5FC9F7880F911D969579
S1131170879597F90895E1E0660F771F881FBB1FD5
S1131180621773078407BA0720F0621B730B840B82
S1131190BA0BEE1F88F7E095089598D088F09F5712
S11311A090F0B92F9927B751A0F0D1F0660F771FAF
S11311B0881F991F1AF0BA95C9F712C0B13081F08F
S11311C09FD0B1E008959CC0672F782F8827B85F1F
S11311D039F0B93FCCF3869577956795B395D9F7F0
S11311E03EF490958095709561957F4F8F4F9F4FFA
S11311F00895E89409C097FB3EF490958095709506
S113120061957F4F8F4F9F4F9923A9F0F92F96E94E
S1131210BB279395F695879577956795B795F111C3
S1131220F8CFFAF4BB0F11F460FF1BC06F5F7F4F60
S11312308F4F9F4F16C0882311F096E911C0772372
S113124021F09EE8872F762F05C0662371F096E87B
S1131250862F70E060E02AF09A95660F771F881F4A
S1131260DAF7880F9695879597F9089597F99F6708
S113127080E870E060E008959FEF80EC089500241A
S11312800A941616170618060906089500240A94E7
S113129012161306140605060895092E0394000C6D
S11312A011F4882352F0BB0F40F4BF2B11F460FFFC
S11312B004C06F5F7F4F8F4F9F4F089557FD905825
S11312C0440F551F59F05F3F71F04795880F97FB06
S11312D0991F61F09F3F79F08795089512161306C0
S11312E01406551FF2CF4695F1DF08C016161706EF
S11312F01806991FF1CF8695710561050894089524
S1131300E894BB2766277727CB0197F90895DEDF9A
S1131310A8F19E57A8F1985160F039F1983070F512
S1131320092E9927660F771F881F991F0A94D1F7F2
S11313301CC0BB27993F4CF4B111B1E0B62B672F09
S1131340782F8827985FB1F708C0869577956795B9
S1131350B79508F4B1609395C1F7BB0F30F411F45D
S113136060FF03C06F5F7F4F8F4F3EF49095809571
S1131370709561957F4F8F4F9F4F08956894C1CFAB
S1131380BFCF0BD08ACF7BDF28F080DF18F0952306
S113139009F06CCF71CF1124B4CF90DFA0F3959FE7
S11313A0D1F3950F50E0551F629FF001729FBB2748
S11313B0F00DB11D639FAA27F00DB11DAA1F649FF4
S11313C06627B00DA11D661F829F2227B00DA11DA7
S11313D0621F739FB00DA11D621F839FA00D611D2D
S11313E0221F749F3327A00D611D231F849F600D4E
S11313F0211D822F762F6A2F11249F5750408AF087
S1131400E1F088234AF0EE0FFF1FBB1F661F771F12
S1131410881F91505040A9F79E3F510570F026CF88
S113142070CF5F3FECF3983EDCF386957795679534
S1131430B795F795E7959F5FC1F7FE2B880F911D30
S11314409695879597F90895052E97FB1EF40094B9
S11314500E943B0A57FD07D00E94520A07FC03D0A2
S11314604EF40C943B0A50954095309521953F4F8E
S11314704F4F5F4F089590958095709561957F4F7C
S11314808F4F9F4F0895A29FB001B39FC001A39FA8
S1131490700D811D1124911DB29F700D811D1124A9
S11314A0911D0895A1E21A2EAA1BBB1BFD010DC0BC
S11314B0AA1FBB1FEE1FFF1FA217B307E407F50700
S11314C020F0A21BB30BE40BF50B661F771F881FDC
S11314D0991F1A9469F760957095809590959B0172
S10F14E0AC01BD01CF010895F894FFCFCA
S9030000FC
