:100000000C943E000C945B000C945B000C945B0021
:100010000C945B000C945B000C945B000C945B00F4
:100020000C945B000C945B000C945B000C945B00E4
:100030000C945B000C94BB070C945B000C945B006D
:100040000C945B000C945B000C945B000C945B00C4
:100050000C94EA020C945B000C945B000C945B0023
:100060000C9459020C945B000C945B000C945B00A4
:100070000C94F9060C945B000C94530711241FBEDA
:10008000CFEFD8E0DEBFCDBF11E0A0E0B1E0E8EBFC
:10009000F5E102C005900D92A430B107D9F723E035
:1000A000A4E0B1E001C01D92A236B207E1F70E94C0
:1000B000A8000C94DA0A0C94000080E895E20E94F3
:1000C00002050E94B8000E9492070E94D3000E947D
:1000D0004E020895FF920F931F93CF93DF93CDB7F6
:1000E000DEB728970FB6F894DEBF0FBECDBFCE01A6
:1000F00001960E9442064C835D836E83F22E0D8131
:100100001E8189818130C1F40E94BF068FE7F812F9
:1001100003C00E94BF0610C0012B29F010920601F7
:100120001092050109C081E090E090930601809350
:1001300005018C818093040128960FB6F894DEBFE8
:100140000FBECDBFDF91CF911F910F91FF9008950A
:100150000E945D00089A78940E94B1000E946A0093
:10016000FDCF17BC18BC1092B3001092B4000895D4
:10017000389A399A419A4098239A249A84B580688B
:1001800084BD84B58F7B84BD84B5806284BD84B515
:100190008F7E84BD84B5836084BD17BC18BC16BC3B
:1001A00083E085BD08953E9A3F9A479A4698579AAC
:1001B000569AE0EBF0E080818068808380818F7BBD
:1001C000808380818062808380818F7E8083808134
:1001D000836080831092B3001092B4001092B2003A
:1001E000E1EBF0E080818C7F80838081846080837C
:1001F000089520913A0180913B0190E0A0E0B0E0A9
:10020000820F911DA11DB11D20913C01820F911DF6
:10021000A11DB11D20913D01820F911DA11DB11D98
:10022000B695A79597958795B695A7959795879530
:10023000089520913E0180913F0190E0A0E0B0E060
:10024000820F911DA11DB11D20914001820F911DB2
:10025000A11DB11D20914101820F911DA11DB11D54
:10026000B695A79597958795B695A79597958795F0
:100270000895209142018091430190E0A0E0B0E018
:10028000820F911DA11DB11D20914401820F911D6E
:10029000A11DB11D20914501820F911DA11DB11D10
:1002A000B695A79597958795B695A79597958795B0
:1002B0000895209146018091470190E0A0E0B0E0D0
:1002C000820F911DA11DB11D20914801820F911D2A
:1002D000A11DB11D20914901820F911DA11DB11DCC
:1002E000B695A79597958795B695A7959795879570
:1002F0000895CF93382F813108F030E13323A9F1ED
:1003000040E050E020E060E070E0CB01A0E1B0E030
:10031000E0910801F0E0E41BF50B6AF0E0910801C0
:10032000F0E0E41BF50BEE0FFF1FE65EFE4F0190C1
:10033000F081E02D0EC0C0910801FD01E41BF50B1A
:10034000EC0FF11DEE0FFF1FE65EFE4F0190F081F6
:10035000E02D6E0F7F1F811D911DEF2B09F02F5F88
:100360004F5F5F4F4317A0F204C020E060E070E0F1
:10037000CB0130E040E050E00E94990AC901CF91E2
:100380000895CF93DF939C0140E050E0FA01EE0F17
:10039000FF1FE65EFE4F118210824F5F5F4F4031BC
:1003A0005105A1F710924A0110924B0110924C0195
:1003B00010924D015098519A599AC2ECD0E0888120
:1003C0008F738883E0ECF0E080818D7F8083C901AA
:1003D000AA2797FDA095BA2F880F991FAA1FBB1FA8
:1003E000880F991FAA1FBB1F9C01AD01220F331F4D
:1003F000441F551F220F331F441F551F60E072E139
:100400008AE790E00E94BB0ACA01B90161507109F4
:10041000810991090E941D090E94FC09272F332799
:1004200027FD3A952093C5006093C400E1ECF0E00D
:1004300080E1808388818660888380818B7F808350
:100440008881877F888388818F7C8883808180688A
:100450008083DF91CF910895EEE7F0E08081806F97
:100460008083ECE7F0E080818064808380818F77F7
:1004700080838081807E8083808184608083EAE7BE
:10048000F0E08081886080838081806880838081C3
:100490008760808380818064808308950C980D98A4
:1004A0000E980F980E942C0280E895E20E94C101EC
:1004B00008951F920F920FB60F9211242F933F931E
:1004C0004F935F936F937F938F939F93AF93BF935C
:1004D000CF93DF93EF93FF93609178008091790041
:1004E00070E0782B6031710510F460E170E080916C
:1004F0000D01C0910C01D0E094E0899FC00DD11D89
:10050000112480E090E00E941B0920E030E040E3ED
:1005100051E40E9422089B01AC0160E070EC81E094
:1005200095E40E94870820E030E040E05FE30E940D
:1005300023080E9458090E94EF08FE01E65CFE4F66
:1005400060838081843028F484E0FE01E65CFE4F05
:100550008083FE01E65CFE4F80818F3110F08EE1DA
:10056000808380910C018F5F80930C0180910C013E
:10057000843039F410920C0180910D018F5F8093CB
:100580000D0180910D01843011F410920D01ECE702
:10059000F0E08081807F8083908180910D018C5F6D
:1005A000892B8083EAE7F0E0808180648083FF917B
:1005B000EF91DF91CF91BF91AF919F918F917F91FB
:1005C0006F915F914F913F912F910F900FBE0F90C0
:1005D0001F9018951F920F920FB60F9211244F92F1
:1005E0005F927F928F929F92AF92BF92CF92EF9243
:1005F000FF921F932F933F934F935F936F937F933C
:100600008F939F93AF93BF93CF93DF93EF93FF931A
:100610001091C600123539F482E580934A0181E0D9
:1006200080930901A5C080914A01823509F07CC000
:1006300080910901843009F077C01D3009F074C041
:100640000F2EFBE4EF2EF1E0FF2EF02DF70160817D
:100650000F2EFCE44F2EF1E05F2EF02DF2017080A2
:10066000CDE4D1E0C88070E080E090E00E941D09F8
:1006700020E030E048EC52E40E94360A4B015C0175
:10068000672D70E080E090E00E941D0920E030E0DE
:1006900040E251E40E94360A9B01AC01C501B4015D
:1006A0000E9423084B015C016C2D70E080E090E01B
:1006B0000E941D099B01AC01C501B4010E942308E1
:1006C00023E333E34BEC51E40E94360A20E030E0B0
:1006D00040E05FE30E9423080E9458090E94EF084F
:1006E000E0910801F0E0EE0FFF1FE65EFE4F718320
:1006F000608370930B0160930A01809108018F5F02
:1007000080930801809108018F70809308011092F6
:100710004A01F7011082F201108218821092090139
:10072000809107018111599880910901843050F01E
:1007300010924A0110924B0110924C0110924D01FF
:100740001092090180914A01823591F4812F90E045
:10075000C0970A9768F4E0910901F0E080ED810FFD
:10076000E65BFE4F8083809109018F5F80930901D2
:10077000FF91EF91DF91CF91BF91AF919F918F91B9
:100780007F916F915F914F913F912F911F91FF90BA
:10079000EF90CF90BF90AF909F908F907F905F90A1
:1007A0004F900F900FBE0F901F901895282F2F7706
:1007B00030E0F901EE0FFF1FE25BFE4F91819F3F9A
:1007C000B1F1F901EE0FFF1FE25BFE4F618190E096
:1007D00041814F3F71F1F901EE0FFF1FE25BFE4FC8
:1007E0004181552747FD5095262F30E0421753078A
:1007F00011F5019666E09C012F773327F901EE0F82
:10080000FF1FE25BFE4F71817F3FB9F0F901EE0FF0
:10081000FF1FE25BFE4F2181332727FD3095241710
:10082000350769F4615001966111E5CF0AC080E097
:10083000089580E0089580E0089580E0089580E0C4
:10084000089581E00895CF92DF92EF92FF920F9387
:100850001F93CF93DF93CDB7DEB727970FB6F894EA
:10086000DEBF0FBECDBFE0911101EF77F0E0EE0FDC
:10087000FF1FE25BFE4F2081E0911101F0E0319615
:10088000EF77FF27EE0FFF1FE25BFE4F3081E09115
:100890001101F0E03296EF77FF27EE0FFF1FE25BCA
:1008A000FE4F4081E0911101F0E03396EF77FF2792
:1008B000EE0FFF1FE25BFE4F8081E0911101F0E03F
:1008C0003496EF77FF27EE0FFF1FE25BFE4FE080CD
:1008D000F12CF82AE0911101F0E03596EF77FF272F
:1008E000EE0FFF1FE25BFE4F8081E0911101F0E00F
:1008F0003696EF77FF27EE0FFF1FE25BFE4F00817A
:1009000010E0182B80E090E0EFEFFFEF5FEFA09199
:1009100011016C01CA0ED11CD601AF77BB27AA0FFB
:10092000BB1FA25BBE4FAC91EA27AE2FA295AE27AC
:100930000A2EA695A695A0250A2EA695A025A770F5
:100940000E2EEF2FA6950794A795F02DEA27069473
:10095000A795F025EA27A09111016C01CA0ED11CC0
:10096000D601AF77BB27AA0FBB1FA25BBE4F119664
:100970005C9301968730910509F0C9CFEF2B21F4E4
:1009800081E0FB01808302C0FB011082FD82EC82CA
:100990001F830E835E2D6D81702F8F8190E02796CF
:1009A0000FB6F894DEBF0FBECDBFDF91CF911F9180
:1009B0000F91FF90EF90DF90CF90089580E090E04E
:1009C0002FEFFC01EE0FFF1FDF01A25BBE4F119660
:1009D0002C93E25BFD4F21831082019680389105B4
:1009E00081F710920E0110920F01109215011092D2
:1009F0001401109210011092120110921101109224
:100A0000130108950F931F93CF93DF938C010E94DE
:100A1000DE045298539ACAECD0E088818F738883A1
:100A2000E8ECF0E080818D7F8083C801AA2797FDE4
:100A3000A095BA2F880F991FAA1FBB1F880F991F57
:100A4000AA1FBB1F9C01AD01220F331F441F551F5E
:100A5000220F331F441F551F60E072E18AE790E0C8
:100A60000E94BB0ACA01B90161507109810991094B
:100A70000E941D090E94FC09272F332727FD3A9564
:100A80002093CD006093CC00E9ECF0E088E1808316
:100A900088818660888380818B7F80838881877F3F
:100AA000888388818F7C888380818068808380812F
:100AB00080648083DF91CF911F910F910895809181
:100AC000C80085FF31C0F894E0910F01F0E0EE0F0F
:100AD000FF1FE25BFD4F81818F3F29F1E0910F0104
:100AE000F0E0EE0FFF1FE25BFD4F80818093CE00B0
:100AF000E0910F01F0E0EE0FFF1FE25BFD4F8FEF83
:100B00008183E0910F01F0E0EE0FFF1FE25BFD4FEC
:100B1000108280910F018F5F80930F0180910F01F0
:100B20008F7780930F01789408950F931F93CF933D
:100B3000DF93CDB7DEB729970FB6F894DEBF0FBEAF
:100B4000CDBF09831A832B833C834D835E836F83E0
:100B5000972F78878987E0910E014E2F50E0EF772D
:100B6000F0E0EE0FFF1FE25BFD4F00830183FA010F
:100B70003196EF77FF27EE0FFF1FE25BFD4F26E078
:100B8000208301839A012E5F3F4FFE013296BE0102
:100B9000685F7F4FD901AF77BB271191AA0FBB1FA9
:100BA000A25BBD4F1C9311960C932F5F3F4FE6172E
:100BB000F70781F7FA013896EF77FF27EE0FFF1F4F
:100BC000E25BFD4F80830183FA013996EF77FF27BF
:100BD000EE0FFF1FE25BFD4F90830183BA01665F5A
:100BE0007F4F80E090E02FEF3FEFE0910E01DC01BE
:100BF000AE0FB11DFD01EF77FF27EE0FFF1FE25B88
:100C0000FD4FE0812E27E22FE295E2270E2EE6959A
:100C1000E695E0250E2EE695E025E770022E232FBF
:100C2000E6950794E795302D2E270694E795302515
:100C30002E2701968A309105C1F6FB01EF77FF2739
:100C4000EE0FFF1FE25BFD4F20830183FA013B960D
:100C5000EF77FF27EE0FFF1FE25BFD4F308301832D
:100C6000445F5F4F4F7740930E010E945F052996C6
:100C70000FB6F894DEBF0FBECDBFDF91CF911F91AD
:100C80000F9108950F931F93CF93DF93CDB7DEB7E6
:100C90002F970FB6F894DEBF0FBECDBF8C01FE01BB
:100CA000389687E0DF011D928A95E9F7F8011082F6
:100CB000809111010E94D6038823C1F08091110117
:100CC000BE01615F7F4F0E94230439874A875B879B
:100CD0006C877D878E878F85882321F081E0D801FE
:100CE0008C932EC082E0F80180832AC0809111018C
:100CF00090E007978038910504F5809111018750A5
:100D00000E94D6038823D9F080911101BE01615F52
:100D10007F4F87500E94230439874A875B876C87FF
:100D20007D878E878F85882321F081E0D8018C9381
:100D300007C082E0F801808303C020E001C020E00A
:100D400020931001288787E0FE013896DE01119676
:100D500001900D928A95E1F729813A814B815C815E
:100D60006D817E818F8190E02F960FB6F894DEBF63
:100D70000FBECDBFDF91CF911F910F9108950F93BB
:100D80001F93CF93DF93CDB7DEB729970FB6F894B3
:100D9000DEBF0FBECDBF8091100189830E94F90094
:100DA0008A830E9419018B830E9439018C830E94DF
:100DB00059018D8383E00E9479019E838F830E9475
:100DC000B807782F8887998709811A812B813C8100
:100DD0004D815E816F81892F0E94950529960FB6FE
:100DE000F894DEBF0FBECDBFDF91CF911F910F9161
:100DF00008951F920F920FB60F9211248F939F9315
:100E0000EF93FF938091CE009091130191111BC03D
:100E1000009AE0911401F0E0EE0FFF1FE25BFE4F3D
:100E20008183E0911401F0E0EE0FFF1FE25BFE4FC3
:100E3000808391E0909313018093120180911401BB
:100E4000809311011DC0E0911401F0E09091120116
:100E5000EE0FFF1FE25BFE4F9183E0911401F0E083
:100E6000EE0FFF1FE25BFE4F8083809113018F5FC7
:100E70008093130180911301873011F410921301B4
:100E8000809114018F5F80931401809114018F77FA
:100E900080931401FF91EF919F918F910F900FBE5E
:100EA0000F901F9018951F920F920FB60F9211245A
:100EB0008F93EF93FF93E0910F01F0E0EE0FFF1F90
:100EC000E25BFD4F81818F3F29F1E0910F01F0E05E
:100ED000EE0FFF1FE25BFD4F80818093CE00E0911B
:100EE0000F01F0E0EE0FFF1FE25BFD4F1082E0917B
:100EF0000F01F0E0EE0FFF1FE25BFD4F8FEF8183EC
:100F000080910F018F5F80930F0180910F018F7788
:100F100080930F01FF91EF918F910F900FBE0F9073
:100F20001F901895E0E8F0E080818F7080838081C9
:100F30008C7F8083E1E8F0E080818860808380811D
:100F40008F7E8083109285001092840088E59BE15B
:100F5000909389008093880080818D7F8083808139
:100F600085608083EFE6F0E0808182608083089571
:100F700080E090E008951F920F920FB60F92112417
:100F80002F933F934F935F936F937F938F939F9391
:100F9000AF93BF93EF93FF93009A809100019091DC
:100FA0000101A0910201B0910301892B8A2B8B2BA7
:100FB00009F18091000190910101A0910201B0918D
:100FC00003018F339244AF40B105A1F0809100013D
:100FD00090910101A0910201B09103010197A10933
:100FE000B1098093000190930101A0930201B09395
:100FF000030117C08091000190910101A0910201AD
:10100000B0910301892B8A2B8B2B59F48091160107
:1010100090911701E0911801F09119016EE473E0CD
:101020000995FF91EF91BF91AF919F918F917F9122
:101030006F915F914F913F912F910F900FBE0F9045
:101040001F9018955058BB27AA270ED084C175D180
:1010500030F07AD120F031F49F3F11F41EF46AC1D0
:101060000EF4E095E7FB37C1E92F86D180F3BA177C
:10107000620773078407950718F071F49EF5B5C1F0
:101080000EF4E0950B2EBA2FA02D0B01B9019001A3
:101090000C01CA01A0011124FF27591B99F0593FE7
:1010A00050F4503E68F11A16F040A22F232F342F2F
:1010B0004427585FF3CF469537952795A795F0407D
:1010C0005395C9F77EF41F16BA0B620B730B840B92
:1010D000BAF09150A1F0FF0FBB1F661F771F881F4A
:1010E000C2F70EC0BA0F621F731F841F48F48795A2
:1010F00077956795B795F7959E3F08F0B3CF939591
:10110000880F08F09927EE0F9795879508950CD0D2
:1011100022C11AD140F011D130F021F45F3F19F013
:10112000DAC0511163C106C127D198F39923C9F3DD
:101130005523B1F3951B550BBB27AA2762177307DD
:10114000840738F09F5F5F4F220F331F441FAA1F91
:10115000A9F333D00E2E3AF0E0E830D09150504051
:10116000E695001CCAF729D0FE2F27D0660F771FFF
:10117000881FBB1F261737074807AB07B0E809F0E1
:10118000BB0B802DBF01FF2793585F4F2AF09E3F76
:10119000510568F0A0C02AC15F3FECF3983EDCF334
:1011A000869577956795B795F7959F5FC9F7880FEF
:1011B000911D9695879597F90895E1E0660F771F41
:1011C000881FBB1F621773078407BA0720F0621BD2
:1011D000730B840BBA0BEE1F88F7E0950895D4D0FB
:1011E00088F09F5790F0B92F9927B751A0F0D1F010
:1011F000660F771F881F991F1AF0BA95C9F712C09A
:10120000B13081F0F2D0B1E00895EFC0672F782FB0
:101210008827B85F39F0B93FCCF386957795679505
:10122000B395D9F73EF490958095709561957F4F71
:101230008F4F9F4F0895E89409C097FB3EF4909517
:101240008095709561957F4F8F4F9F4F9923A9F09F
:10125000F92F96E9BB279395F6958795779567952E
:10126000B795F111F8CFFAF4BB0F11F460FF1BC072
:101270006F5F7F4F8F4F9F4F16C0882311F096E905
:1012800011C0772321F09EE8872F762F05C06623B3
:1012900071F096E8862F70E060E02AF09A95660F6C
:1012A000771F881FDAF7880F9695879597F9089525
:1012B00085D080F09F3740F491110EF097C060E028
:1012C00070E080E89FEB089526F41B16611D711DE8
:1012D000811D07C021C097F99F6780E870E060E03A
:1012E0000895882371F4772321F09850872B762F67
:1012F00007C0662311F499270DC09051862B70E02A
:1013000060E02AF09A95660F771F881FDAF7880F3A
:101310009695879597F908959F3F31F0915020F465
:10132000879577956795B795880F911D96958795C1
:1013300097F908959FEF80EC089500240A941616FB
:10134000170618060906089500240A9412161306B3
:10135000140605060895092E0394000C11F4882341
:1013600052F0BB0F40F4BF2B11F460FF04C06F5F5D
:101370007F4F8F4F9F4F089557FD9058440F551F33
:1013800059F05F3F71F04795880F97FB991F61F007
:101390009F3F79F087950895121613061406551F7E
:1013A000F2CF4695F1DF08C0161617061806991FEA
:1013B000F1CF86957105610508940895E5DFA0F0E9
:1013C000BEE7B91788F4BB279F3860F41616B11D25
:1013D000672F782F8827985FF7CF86957795679541
:1013E000B11D93959639C8F30895E894BB276627F5
:1013F0007727CB0197F90895C7DFA8F19E57A8F189
:10140000985160F039F1983070F5092E9927660FE0
:10141000771F881F991F0A94D1F71CC0BB27993FDB
:101420004CF4B111B1E0B62B672F782F8827985F65
:10143000B1F708C0869577956795B79508F4B160C0
:101440009395C1F7BB0F30F411F460FF03C06F5FD9
:101450007F4F8F4F3EF490958095709561957F4FAB
:101460008F4F9F4F08956894C1CFBFCF0BD073CFDC
:1014700064DF28F069DF18F0952309F02CCF5ACFEC
:101480001124B4CF79DFA0F3959FD1F3950F50E0ED
:10149000551F629FF001729FBB27F00DB11D639F26
:1014A000AA27F00DB11DAA1F649F6627B00DA11DCC
:1014B000661F829F2227B00DA11D621F739FB00D72
:1014C000A11D621F839FA00D611D221F749F3327E2
:1014D000A00D611D231F849F600D211D822F762F7B
:1014E0006A2F11249F5750408AF0E1F088234AF078
:1014F000EE0FFF1FBB1F661F771F881F91505040C4
:10150000A9F79E3F510570F0E6CE70CF5F3FECF338
:10151000983EDCF3869577956795B795F795E795AF
:101520009F5FC1F7FE2B880F911D9695879597F9C0
:101530000895A1E21A2EAA1BBB1BFD010DC0AA1F14
:10154000BB1FEE1FFF1FA217B307E407F50720F02C
:10155000A21BB30BE40BF50B661F771F881F991FA7
:101560001A9469F760957095809590959B01AC01F0
:10157000BD01CF010895052E97FB1EF400940E9433
:10158000D20A57FD07D00E94990A07FC03D04EF4F7
:101590000C94D20A50954095309521953F4F4F4F6E
:1015A0005F4F089590958095709561957F4F8F4F0F
:0815B0009F4F0895F894FFCF4E
:0415B8003F420F009F
:00000001FF
