S019000054657374325F61746D65676133323450412E7372656341
S11300000C9482000C949F000C949F000C949F000D
S11300100C949F000C949F000C949F000C949F00E0
S11300200C949F000C949F000C949F000C949F00D0
S11300300C949F000C949F000C949F000C949F00C0
S11300400C949F000C949F000C949F000C949F00B0
S11300500C949F000C949F000C949F000C949F00A0
S11300600C949F000C949F000C949F000C949F0090
S11300700C94C6010C949F000C949F003C016601F3
S11300806601660166016601660166016601660134
S11300906601660166016601660166016601660124
S11300A05D0166013F016601660166016601660144
S11300B06601660166016601660166016601660104
S11300C066014E016601660166016601660166010C
S11300D066016601660166016601660166016601E4
S11300E05D0166013F016601660166016601660104
S11300F066016601660166016601660166016601C4
S113010066014E0111241FBECFEFD8E0DEBFCDBF84
S113011011E0A0E0B1E0EEE8F9E002C005900D9234
S1130120A430B107D9F721E0A4E0B1E001C01D92E9
S1130130AE30B207E1F70E9418010C94C5040C9488
S11301400000CF93DF939C015298CAECD0E08881E1
S11301508F738883E8ECF0E080818D7F8083C90110
S1130160AA2797FDA095BA2F880F991FAA1FBB1F16
S1130170880F991FAA1FBB1F9C01AD01220F331FBB
S1130180441F551F220F331F441F551F60E072E1A7
S11301908AE790E00E947E04CA01B90161507109A6
S11301A0810991090E94FF010E943A02272F3327F7
S11301B027FD3A952093CD006093CC00E9ECF0E064
S11301C080E1808388818660888380818B7F8083BF
S11301D08881877F888388818F7C888380818068F9
S11301E08083DF91CF910895E0910701F0E0EE0F55
S11301F0FF1FE85FFE4F8181E0910701F0E0EE0F01
S1130200FF1FE85FFE4F8081E0910701F0E0EE0FF1
S1130210FF1FE85FFE4F1082909107019F5F90934C
S1130220070190910701933010F01092070108958F
S1130230CF93DF931F92CDB7DEB780E895E20E949B
S1130240A1000E9416030E943503219878940E940D
S113025004030E9407030E94F40089838981882390
S1130260D1F3898190E0FC01F097E434F10570F555
S1130270E25CFF4F0C949D040E940703ECCF809135
S113028002019091030121E082279093030180935E
S11302900201892B01F70E941103DDCF8091000137
S11302A09091010121E08227909301018093000144
S11302B0892B89F60E940E03CECF0E94FB020E9476
S11302C001030E9404030E94FE02C5CF898190E0CD
S11302D0C0970A9708F057C08091000190910101DE
S11302E0892B19F1298130E020533109C901880F84
S11302F0991F220F331F220F331F220F331F820F28
S1130300931F0E949D02298130E020533109C901C5
S1130310880F991F220F331F220F331F220F331F01
S1130320820F931F0E94B40202C00E940E038091A8
S1130330020190910301892B19F1298130E02053A6
S11303403109C901880F991F220F331F220F331F50
S1130350220F331F820F931F0E94CB02298130E0AA
S113036020533109C901880F991F220F331F220F0F
S1130370331F220F331F820F931F0E94E3026BCFA0
S11303800E94110368CF0E94070365CF1F920F924A
S11303900FB60F9211248F939F93EF93FF93E091E5
S11303A00601F0E08091CE00EE0FFF1FE85FFE4FE4
S11303B08083E0910601F0E0EE0FFF1FE85FFE4F3F
S11303C081E08183809106018F5F8093060181E043
S11303D090E090930501809304018091060183309D
S11303E010F010920601199AFF91EF919F918F914D
S11303F00F900FBE0F901F901895E89409C097FBBB
S11304003EF490958095709561957F4F8F4F9F4FE7
S11304109923A9F0F92F96E9BB279395F69587952B
S113042077956795B795F111F8CFFAF4BB0F11F4EE
S113043060FF1BC06F5F7F4F8F4F9F4F16C0882395
S113044011F096E911C0772321F09EE8872F762FCB
S113045005C0662371F096E8862F70E060E02AF00C
S11304609A95660F771F881FDAF7880F96958795F8
S113047097F9089541D0A8F19E57A8F1985160F0DA
S113048039F1983070F5092E9927660F771F881F68
S1130490991F0A94D1F71CC0BB27993F4CF4B111A2
S11304A0B1E0B62B672F782F8827985FB1F708C083
S11304B0869577956795B79508F4B1609395C1F7DC
S11304C0BB0F30F411F460FF03C06F5F7F4F8F4F99
S11304D03EF490958095709561957F4F8F4F9F4F17
S11304E00895689424C022C057FD9058440F551FA6
S11304F059F05F3F71F04795880F97FB991F61F0A2
S11305009F3F79F087950895121613061406551F18
S1130510F2CF4695F1DF08C0161617061806991F84
S1130520F1CF86957105610508940895E894BB2779
S113053066277727CB0197F90895BC01882777FDB3
S11305408095982F0E94FF0120E030E048EC52E4AF
S11305500E945F0320E030E04FE753E40E941B0455
S11305600E94C70367BD0895BC01882777FD809565
S1130570982F0E94FF0120E030E048EC52E40E94F2
S11305805F0320E030E04FE753E40E941B040E9425
S1130590C70368BD0895BC01882777FD8095982F0F
S11305A00E94FF0120E030E048EC52E40E945F0327
S11305B020E030E04FE753E40E941B040E94C7038D
S11305C06093B3000895BC01882777FD8095982F28
S11305D00E94FF0120E030E048EC52E40E945F03F7
S11305E020E030E04FE753E40E941B040E94C7035D
S11305F06093B4000895489A499A08951A9A1D9AE6
S11306000895369A379A0895309A319A089517BC06
S113061018BC1092B3001092B400089517BC18BC13
S113062008951092B3001092B4000895509A519A0C
S1130630229A229A589A59982A9A2D98239A249A57
S113064084B5806884BD84B58F7B84BD84B58062A5
S113065084BD84B58F7E84BD84B5836084BD17BC9E
S113066018BC16BC83E085BD08953E9A3F9A389A1B
S1130670399A469A4798409A4198579A569AE0EB85
S1130680F0E080818068808380818F7B808380819B
S11306908062808380818F7E808380818360808379
S11306A01092B3001092B4001092B200E1EBF0E0AB
S11306B080818C7F808380818460808308950CD0C6
S11306C0A9C0A1D040F098D030F021F45F3F19F0D8
S11306D08AC051112CCF8DC007DF98F39923C9F339
S11306E05523B1F3951B550BBB27AA276217730734
S11306F0840738F09F5F5F4F220F331F441FAA1FE8
S1130700A9F333D00E2E3AF0E0E830D091505040A7
S1130710E695001CCAF729D0FE2F27D0660F771F55
S1130720881FBB1F261737074807AB07B0E809F037
S1130730BB0B802DBF01FF2793585F4F2AF09E3FCC
S1130740510568F050C0F3CE5F3FECF3983EDCF304
S1130750869577956795B795F7959F5FC9F7880F45
S1130760911D9695879597F90895E1E0660F771F97
S1130770881FBB1F621773078407BA0720F0621B28
S1130780730B840BBA0BEE1F88F7E0950895B4DE63
S113079088F09F5790F0B92F9927B751A0F0D1F066
S11307A0660F771F881F991F1AF0BA95C9F712C0F0
S11307B0B13081F0BBDEB1E00895B8CE672F782F59
S11307C08827B85F39F0B93FCCF38695779567955C
S11307D0B395D9F73EF490958095709561957F4FC8
S11307E08F4F9F4F089597F99F6780E870E060E00E
S11307F008959FEF80EC089500240A9416161706B6
S113080018060906089500240A94121613061406FD
S113081005060895092E0394000C11F4882352F060
S1130820BB0F40F4BF2B11F460FF04C06F5F7F4F18
S11308308F4F9F4F08950BD0EDCFDEDF28F0E3DF1D
S113084018F0952309F0CFCFD4CF112470CE4CDE0D
S1130850A0F3959FD1F3950F50E0551F629FF001CF
S1130860729FBB27F00DB11D639FAA27F00DB11D28
S1130870AA1F649F6627B00DA11D661F829F2227B1
S1130880B00DA11D621F739FB00DA11D621F839F38
S1130890A00D611D221F749F3327A00D611D231F0E
S11308A0849F600D211D822F762F6A2F11249F575C
S11308B050408AF0E1F088234AF0EE0FFF1FBB1F7F
S11308C0661F771F881F91505040A9F79E3F51051E
S11308D070F089CF2CCE5F3FECF3983EDCF3869525
S11308E077956795B795F795E7959F5FC1F7FE2BC9
S11308F0880F911D9695879597F90895052E97FB76
S11309001EF400940E94950457FD07D00E94A3048E
S113091007FC03D04EF40C94950450954095309503
S113092021953F4F4F4F5F4F089590958095709557
S113093061957F4F8F4F9F4F0895EE0FFF1F0590D6
S1130940F491E02D0994A1E21A2EAA1BBB1BFD0110
S11309500DC0AA1FBB1FEE1FFF1FA217B307E4079A
S1130960F50720F0A21BB30BE40BF50B661F771FF2
S1130970881F991F1A9469F76095709580959095D2
S11109809B01AC01BD01CF010895F894FFCF97
S107098E010001005F
S9030000FC
