S019000054657374325F61746D65676133323450412E7372656341
S11300000C943E000C945B000C945B000C945B001D
S11300100C945B000C945B000C945B000C945B00F0
S11300200C945B000C945B000C945B000C945B00E0
S11300300C945B000C94B70A0C945B000C945B006A
S11300400C945B000C945B000C945B000C945B00C0
S11300500C94EB050C945B000C945B000C945B001B
S11300600C9406050C945B000C945B000C945B00F0
S11300700C94B3090C945B000C940C0A11241FBE5D
S1130080CFEFD8E0DEBFCDBF11E0A0E0B1E0E6EEF7
S1130090FBE102C005900D92A430B107D9F723E02B
S11300A0A4E0B1E001C01D92AC35B207E1F70E94B3
S11300B04A010C94F10D0C94000080E895E20E9432
S11300C0FB070E94C3030E94910A0E94E2030E945C
S11300D0FB040895BF92CF92DF92EF92FF920F93A9
S11300E01F93CF93DF93CDB7DEB761970FB6F89424
S11300F0DEBF0FBECDBFCE0101960E943B09D32EB9
S1130100C42E2A833B834C835D836E837F838887DD
S1130110ED80FE808981813009F043C0E114F1044F
S113012011F11092090110920801022F298782E02F
S11301308A8783E08B877E2DF98AE88A12E023E0A0
S11301403C854D855E856F8589890E948E08DD20FA
S113015029F0B7018D2D0E94820223C0B7018C2D96
S11301600E94F4011EC021E030E030930901209385
S11301700801C09204018091040190E00E946A0188
S11301808091040190E00E9499018091040190E023
S11301900E9453018091040190E00E9481010E9419
S11301A0E8028091080190910901892B09F462C049
S11301B00E940C048093070183E00E942904909319
S11301C0060180930501809107018431A0F4809198
S11301D00A0190910B0195958795892B61F40E94F2
S11301E0DD0280910A0190910B01826090930B01D2
S11301F080930A013FC080910A0190910B019C01F8
S1130200359527952130310571F42091070124316A
S113021050F08D7F90930B0180930A010E94CE02CF
S11302200E94E80227C020910501309106012A3F6F
S1130230310570F480FD0EC00E94DD0280910A0138
S113024090910B01816090930B0180930A0112C07D
S113025080FF10C020910501309106012A3F31052D
S113026048F08E7F90930B0180930A010E94CE0286
S11302700E94E80261960FB6F894DEBF0FBECDBFB0
S1130280DF91CF911F910F91FF90EF90DF90CF906E
S1130290BF9008950E945D000F9A78940E94BC0359
S11302A00E946A00FDCFBC01882777FD8095982FB6
S11302B00E94250C20E030E048EC52E40E948F0BB1
S11302C020E030E04FE753E40E943E0D0E94F70B1C
S11302D067BD0895BC01882777FD8095982F0E94FB
S11302E0250C20E030E048EC52E40E948F0B20E023
S11302F030E04FE753E40E943E0D0E94F70B68BDC7
S11303000895BC01882777FD8095982F0E94250CBD
S113031020E030E048EC52E40E948F0B20E030E013
S11303204FE753E40E943E0D0E94F70B6093B30025
S11303300895BC01882777FD8095982F0E94250C8D
S113034020E030E048EC52E40E948F0B20E030E0E3
S11303504FE753E40E943E0D0E94F70B6093B400F4
S11303600895CF92DF92EF92FF920F931F93CF9352
S1130370DF93CDB7DEB72A970FB6F894DEBF0FBE72
S1130380CDBF882324F481950E94F4011EC01886F1
S11303901F821A861986819590E0382F2227822B96
S11303A0932B9A8389839C838B836B01CE0107965D
S11303B07C0102E010E09E012F5F3F4F42E050E0DD
S11303C061EF72E0CB010E944B0A2A960FB6F894B3
S11303D0DEBF0FBECDBFDF91CF911F910F91FF9074
S11303E0EF90DF90CF900895CF92DF92EF92FF923B
S11303F00F931F93CF93DF93CDB7DEB72A970FB632
S1130400F894DEBF0FBECDBF882324F481950E94EB
S1130410B1011DC018861F821A86198690E0382FF4
S11304202227822B932B9A8389839C838B836B0152
S1130430CE0107967C0102E010E09E012F5F3F4F42
S113044042E050E061EF72E0CB010E944B0A2A9631
S11304500FB6F894DEBF0FBECDBFDF91CF911F91D1
S11304600F91FF90EF90DF90CF900895CF92DF929D
S1130470EF92FF920F931F93CF93DF93CDB7DEB725
S11304802A970FB6F894DEBF0FBECDBF882324F49D
S113049081950E94820227C020E530E538872F83AA
S11304A020EB30EB3A87298790E0382F2227822BE4
S11304B0932B9A8389839C838B837E836D830F2EF6
S11304C0FCE8CF2ED12CF02DCE0101967C0103E067
S11304D010E09E01295F3F4F42E050E061EF72E07F
S11304E0CB010E944B0A2A960FB6F894DEBF0FBECA
S11304F0CDBFDF91CF911F910F91FF90EF90DF90CF
S1130500CF900895CF92DF92EF92FF920F931F93B3
S1130510CF93DF93CDB7DEB72A970FB6F894DEBF3B
S11305200FBECDBF882324F481950E94360227C0D4
S113053020EB30EB38872F8320E530E53A87298795
S113054090E0382F2227822B932B9A8389839C83D4
S11305508B837E836D830F2EFCE8CF2ED12CF02D60
S1130560CE0101967C0103E010E09E01295F3F4F1C
S113057042E050E061EF72E0CB010E944B0A2A9600
S11305800FB6F894DEBF0FBECDBFDF91CF911F91A0
S11305900F91FF90EF90DF90CF900895299A2898BB
S11305A02D9A2A98479A4698419A40980895189AFD
S11305B0199A08951A9A1D9A08950E94DA020E94BF
S11305C0D7020895369A379A0895309A319A089541
S11305D00E94DA020E94D7020E94E5020E94E2020F
S11305E00895CF92DF92EF92FF920F931F93CF93D0
S11305F0DF93CDB7DEB728970FB6F894DEBF0FBEF2
S1130600CDBF8B018230910509F087C0299A2898C3
S11306102D9A2A98479A4698419A4098FB018181DD
S1130620D82E88231CF4D1940E94D7026D2D7727ED
S113063067FD7095872F972F0E94250C20E030E0EE
S113064048EC52E40E948F0B20E030E04FE753E483
S11306500E943E0D0E94F70B67BDF8018081D82EE1
S113066088231CF4D1940E94DA026D2D772767FD4C
S11306707095872F972F0E94250C20E030E048ECDE
S113068052E40E948F0B20E030E04FE753E40E94D5
S11306903E0D0E94F70B68BDF8018381D82E882394
S11306A01CF4D1940E94E2026D2D772767FD7095AA
S11306B0872F972F0E94250C20E030E048EC52E46D
S11306C00E948F0B20E030E04FE753E40E943E0D80
S11306D00E94F70B6093B300F8018281182F8823DE
S11306E01CF411950E94E502612F772767FD709530
S11306F0872F972F0E94250C20E030E048EC52E42D
S11307000E948F0B20E030E04FE753E40E943E0D3F
S11307100E94F70B6093B40020C00397F1F4FB012F
S1130720808191819E838D838281938198878F8339
S11307301A8219821C821B82C480D580CE01019644
S11307407C0102E010E09E012B5F3F4F42E050E04D
S113075061EF72E0CB010E944B0A28960FB6F89421
S1130760DEBF0FBECDBFDF91CF911F910F91FF90E0
S1130770EF90DF90CF90089517BC18BC1092B3008F
S11307801092B4000895209A219A229A229A299AC2
S113079028982D9A2A98239A249A84B5806884BD2F
S11307A084B58F7B84BD84B5806284BD84B58F7E1F
S11307B084BD84B5836084BD17BC18BC16BC83E0BB
S11307C085BD08953E9A3F9A389A399A479A469831
S11307D0419A4098579A569AE0EBF0E080818068FD
S11307E0808380818F7B808380818062808380810D
S11307F08F7E80838081836080831092B300109207
S1130800B4001092B200E1EBF0E080818C7F808331
S1130810808184608083089520E030E060E070E0AF
S1130820CB01F901ED5BFE4F4081640F711D811D09
S1130830911D2F5F3F4F2530310599F725E030E0BA
S113084040E050E00E94A10D20931101809111011C
S11308500895CF93382F813108F030E13323A9F183
S113086040E050E020E060E070E0CB01A0E1B0E0C7
S1130870E0910D01F0E0E41BF50B6AF0E0910D014D
S1130880F0E0E41BF50BEE0FFF1FE15EFE4F01905D
S1130890F081E02D0EC0C0910D01FD01E41BF50BAC
S11308A0EC0FF11DEE0FFF1FE15EFE4F0190F08192
S11308B0E02D6E0F7F1F811D911DEF2B09F02F5F1F
S11308C04F5F5F4F4317A0F204C020E060E070E088
S11308D0CB0130E040E050E00E94A10DC901CF916E
S11308E00895CF93DF939C0140E050E0FA01EE0FAE
S11308F0FF1FE15EFE4F118210824F5F5F4F403158
S11309005105A1F710923F0110924001109241014C
S1130910109242015098519A599AC2ECD0E08881C1
S11309208F738883E0ECF0E080818D7F8083C90140
S1130930AA2797FDA095BA2F880F991FAA1FBB1F3E
S1130940880F991FAA1FBB1F9C01AD01220F331FE3
S1130950441F551F220F331F441F551F60E072E1CF
S11309608AE790E00E94C30DCA01B9016150710980
S1130970810991090E94250C0E94040D272F332719
S113098027FD3A952093C5006093C400E1ECF0E0A4
S113099080E1808388818660888380818B7F8083E7
S11309A08881877F888388818F7C88838081806821
S11309B08083DF91CF910895ECE7F0E0808180643B
S11309C0808380818F7780838081807E8083EAE743
S11309D0F0E080818068808380818860808380816A
S11309E087608083AEE7B0E08C918F608C938081C8
S11309F0806480830895089809980A980B980E9447
S1130A00DC0480E895E20E94710408951F920F921D
S1130A100FB60F9211242F933F934F935F936F93CD
S1130A207F938F939F93AF93BF93CF93DF93EF9372
S1130A30FF93409178008091790050E0582B403129
S1130A40510510F440E150E0E0911201F0911301DE
S1130A509F01ADECBCEC0E94E20DEC01D695C7956C
S1130A60D695C795CE01880F991F880F991FC80F77
S1130A70D91F2C1B3D0BE901BA0180E090E00E94D4
S1130A80230C20E030E040E351E40E942A0B9B0158
S1130A90AC0160E070EC81E095E40E948F0B20E0F3
S1130AA030E040E05FE30E942B0B0E94600C0E9448
S1130AB0F70BCD5BDE4F6883409112015091130117
S1130AC09A01ADECBCEC0E94E20D96958795969543
S1130AD087959C01220F331F220F331F820F931F10
S1130AE09A01281B390BF901ED5BFE4F808184309C
S1130AF0D0F440911201509113019A010E94E20D29
S1130B0096958795969587959C01220F331F220F02
S1130B10331F820F931F9A01281B390BF901ED5BD8
S1130B20FE4F24E0208340911201509113019A0159
S1130B30ADECBCEC0E94E20D969587959695879551
S1130B409C01220F331F220F331F820F931F9A0120
S1130B50281B390BF901ED5BFE4F80818F31D0F0FA
S1130B6040911201509113019A010E94E20D969551
S1130B708795969587959C01220F331F220F331F6B
S1130B80820F931F9A01281B390BF901ED5BFE4F6D
S1130B902EE120838091120190911301019690938C
S1130BA0130180931201EAE7F0E08081806480837E
S1130BB0FF91EF91DF91CF91BF91AF919F918F9171
S1130BC07F916F915F914F913F912F910F900FBE45
S1130BD00F901F9018951F920F920FB60F92112429
S1130BE04F925F927F928F929F92AF92BF92CF92D9
S1130BF0EF92FF921F932F933F934F935F936F93C3
S1130C007F938F939F93AF93BF93CF93DF93EF9390
S1130C10FF931091C600123539F482E580933F01A9
S1130C2081E080930E01A5C080913F01823509F0D7
S1130C307CC080910E01843009F077C01D3009F02A
S1130C4074C00F2EF0E4EF2EF1E0FF2EF02DF7012B
S1130C5060810F2EF1E44F2EF1E05F2EF02DF201B2
S1130C607080C2E4D1E0C88070E080E090E00E942F
S1130C70250C20E030E048EC52E40E943E0D4B018C
S1130C805C01672D70E080E090E00E94250C20E07C
S1130C9030E040E251E40E943E0D9B01AC01C501ED
S1130CA0B4010E942B0B4B015C016C2D70E080E0C1
S1130CB090E00E94250C9B01AC01C501B4010E9487
S1130CC02B0B23E333E34BEC51E40E943E0D20E075
S1130CD030E040E05FE30E942B0B0E94600C0E9416
S1130CE0F70BE0910D01F0E0EE0FFF1FE15EFE4F08
S1130CF0718360837093100160930F0180910D01E3
S1130D008F5F80930D0180910D018F7080930D0191
S1130D1010923F01F7011082F201108218821092A2
S1130D200E0180910C018111599880910E0184303B
S1130D3050F010923F011092400110924101109224
S1130D40420110920E0180913F01823591F4812F6E
S1130D5090E0C0970A9768F4E0910E01F0E080ED0E
S1130D60810FE15CFE4F808380910E018F5F809341
S1130D700E01FF91EF91DF91CF91BF91AF919F91C0
S1130D808F917F916F915F914F913F912F911F911F
S1130D90FF90EF90CF90BF90AF909F908F907F90F7
S1130DA05F904F900F900FBE0F901F901895282FB3
S1130DB02F7730E0F901EE0FFF1FE85BFE4F9181C2
S1130DC09F3FB1F1F901EE0FFF1FE85BFE4F618118
S1130DD090E041814F3F71F1F901EE0FFF1FE85B95
S1130DE0FE4F4181552747FD5095262F30E042178D
S1130DF0530711F5019666E09C012F773327F9011B
S1130E00EE0FFF1FE85BFE4F71817F3FB9F0F901E0
S1130E10EE0FFF1FE85BFE4F2181332727FD30953E
S1130E202417350769F4615001966111E5CF0AC0B2
S1130E3080E0089580E0089580E0089580E00895BA
S1130E4080E0089581E00895CF92DF92EF92FF92BF
S1130E500F931F93CF93DF93CDB7DEB727970FB6CA
S1130E60F894DEBF0FBECDBFE0911601EF77F0E03E
S1130E70EE0FFF1FE85BFE4F2081E0911601F0E0CA
S1130E803196EF77FF27EE0FFF1FE85BFE4F3081AF
S1130E90E0911601F0E03296EF77FF27EE0FFF1F87
S1130EA0E85BFE4F4081E0911601F0E03396EF7766
S1130EB0FF27EE0FFF1FE85BFE4F8081E0911601D4
S1130EC0F0E03496EF77FF27EE0FFF1FE85BFE4F4D
S1130ED0E080F12CF82AE0911601F0E03596EF77E6
S1130EE0FF27EE0FFF1FE85BFE4F8081E0911601A4
S1130EF0F0E03696EF77FF27EE0FFF1FE85BFE4F1B
S1130F00008110E0182B80E090E0EFEFFFEF5FEF3F
S1130F10A09116016C01CA0ED11CD601AF77BB2774
S1130F20AA0FBB1FA85BBE4FAC91EA27AE2FA295B8
S1130F30AE270A2EA695A695A0250A2EA695A0252D
S1130F40A7700E2EEF2FA6950794A795F02DEA27EC
S1130F500694A795F025EA27A09116016C01CA0E04
S1130F60D11CD601AF77BB27AA0FBB1FA85BBE4F0E
S1130F7011965C9301968730910509F0C9CFEF2B48
S1130F8021F481E0FB01808302C0FB011082FD8219
S1130F90EC821F830E835E2D6D81702F8F8190E014
S1130FA027960FB6F894DEBF0FBECDBFDF91CF9169
S1130FB01F910F91FF90EF90DF90CF90089580E004
S1130FC090E02FEFFC01EE0FFF1FDF01A85BBE4F87
S1130FD011962C93E85BFD4F218310820196803893
S1130FE0910581F7109214011092150110921A01C3
S1130FF01092190108950F931F93CF93DF938C01DF
S11310000E94DF075298539ACAECD0E088818F730C
S11310108883E8ECF0E080818D7F8083C801AA2773
S113102097FDA095BA2F880F991FAA1FBB1F880F81
S1131030991FAA1FBB1F9C01AD01220F331F441F20
S1131040551F220F331F441F551F60E072E18AE7CA
S113105090E00E94C30DCA01B90161507109810970
S113106091090E94250C0E94040D272F332727FD88
S11310703A952093CD006093CC00E9ECF0E088E150
S1131080808388818660888380818B7F8083888148
S1131090877F888388818F7C888380818068808330
S11310A0808180648083DF91CF911F910F91089597
S11310B08091C80085FF31C0F894E0911501F0E0FB
S11310C0EE0FFF1FE85BFD4F81818F3F29F1E09117
S11310D01501F0E0EE0FFF1FE85BFD4F8081809368
S11310E0CE00E0911501F0E0EE0FFF1FE85BFD4F2D
S11310F08FEF8183E0911501F0E0EE0FFF1FE85BB5
S1131100FD4F1082809115018F5F809315018091AE
S113111015018F7780931501789408950F931F9389
S1131120CF93DF93CDB7DEB729970FB6F894DEBF20
S11311300FBECDBF09831A832B833C834D835E830B
S11311406F83972F78878987E09114014E2F50E0A1
S1131150EF77F0E0EE0FFF1FE85BFD4F00830183A4
S1131160FA013196EF77FF27EE0FFF1FE85BFD4F83
S113117026E0208301839A012E5F3F4FFE013296C1
S1131180BE01685F7F4FD901AF77BB271191AA0FCA
S1131190BB1FA85BBD4F1C9311960C932F5F3F4F51
S11311A0E617F70781F7FA013896EF77FF27EE0F76
S11311B0FF1FE85BFD4F80830183FA013996EF77C7
S11311C0FF27EE0FFF1FE85BFD4F90830183BA01F9
S11311D0665F7F4F80E090E02FEF3FEFE0911401D6
S11311E0DC01AE0FB11DFD01EF77FF27EE0FFF1FEE
S11311F0E85BFD4FE0812E27E22FE295E2270E2ED9
S1131200E695E695E0250E2EE695E025E770022E9C
S1131210232FE6950794E795302D2E270694E7951E
S113122030252E2701968A309105C1F6FB01EF7710
S1131230FF27EE0FFF1FE85BFD4F20830183FA01B8
S11312403B96EF77FF27EE0FFF1FE85BFD4F3083E0
S11312500183445F5F4F4F77409314010E94580805
S113126029960FB6F894DEBF0FBECDBFDF91CF91A4
S11312701F910F9108950F931F93CF93DF93CDB7D1
S1131280DEB72F970FB6F894DEBF0FBECDBF8C012B
S1131290FE01389687E0DF011D928A95E9F7F8018F
S11312A01082809116010E94D7068823C9F080918C
S11312B01601BE01615F7F4F0E942407288739878A
S11312C04A875B876C877D878E878F85882321F08B
S11312D081E0D8018C932BC082E0F801808327C081
S11312E08091160190E007978038910504F580916C
S11312F0160187500E94D7068823C9F080911601F1
S1131300BE01615F7F4F87500E9424072887398779
S11313104A875B876C877D878E878F85882321F03A
S113132081E0D8018C9303C082E0F801808387E0D8
S1131330FE013896DE01119601900D928A95E1F72F
S113134029813A814B815C816D817E818F8190E01E
S11313502F960FB6F894DEBF0FBECDBFDF91CF91AD
S11313601F910F9108951F920F920FB60F9211249F
S11313708F939F93EF93FF938091CE0090911801E8
S113138091111AC0E0911901F0E0EE0FFF1FE85B24
S1131390FE4F8183E0911901F0E0EE0FFF1FE85B3F
S11313A0FE4F808391E09093180180931701809100
S11313B01901809316011DC0E0911901F0E090918C
S11313C01701EE0FFF1FE85BFE4F9183E0911901B7
S11313D0F0E0EE0FFF1FE85BFE4F80838091180161
S11313E08F5F8093180180911801873011F4109257
S11313F01801809119018F5F80931901809119015F
S11314008F7780931901FF91EF919F918F910F90A6
S11314100FBE0F901F9018951F920F920FB60F9248
S113142011248F93EF93FF93E0911501F0E0EE0FF9
S1131430FF1FE85BFD4F81818F3F29F1E09115018A
S1131440F0E0EE0FFF1FE85BFD4F80818093CE003C
S1131450E0911501F0E0EE0FFF1FE85BFD4F1082F5
S1131460E0911501F0E0EE0FFF1FE85BFD4F8FEFF9
S11314708183809115018F5F8093150180911501FF
S11314808F7780931501FF91EF918F910F900FBE8D
S11314900F901F901895AF92BF92CF92DF92EF9268
S11314A0FF920F931F93CF93DF935C01CA01A901AD
S11314B0F89470931E0160931D0110931C01009316
S11314C01B010115110591F0CE2DDF2DA0E0B0E038
S11314D0699179919D01220F331FF901E85BFC4F5B
S11314E0718360831196A017B10791F7860120E0FC
S11314F030E0009300011093010120930201309326
S11315000301BA01F5010995179A7894DF91CF91F7
S11315101F910F91FF90EF90DF90CF90BF90AF900D
S11315200895E0E8F0E080818F71808380818C7F72
S11315308083E1E8F0E080818860808380818F7E11
S1131540808380818B7F80838081836080831092FD
S113155085001092840082EE94E090938900809339
S11315608800EFE6F0E080818260808308951F9216
S11315700F920FB60F9211242F933F934F935F93C3
S11315806F937F938F939F93AF93BF93EF93FF9347
S11315908091000190910101A0910201B091030199
S11315A0892B8A2B8B2B09F18091000190910101E9
S11315B0A0910201B09103018F399648A140B10571
S11315C0A1F08091000190910101A0910201B091DC
S11315D003010197A109B1098093000190930101CE
S11315E0A0930201B093030124C080910001909163
S11315F00101A0910201B0910301892B8A2B8B2B4D
S1131600C1F48FE996E8A1E0B0E0809300019093E3
S11316100101A0930201B093030180911B019091F9
S11316201C01E0911D01F0911E0168E473E009952D
S11316301798FF91EF91BF91AF919F918F917F91F7
S11316406F915F914F913F912F910F900FBE0F902B
S11316501F9018955058BB27AA270ED084C175D166
S113166030F07AD120F031F49F3F11F41EF46AC1B6
S11316700EF4E095E7FB37C1E92F86D180F3BA1762
S1131680620773078407950718F071F49EF5B5C1D6
S11316900EF4E0950B2EBA2FA02D0B01B901900189
S11316A00C01CA01A0011124FF27591B99F0593FCD
S11316B050F4503E68F11A16F040A22F232F342F15
S11316C04427585FF3CF469537952795A795F04063
S11316D05395C9F77EF41F16BA0B620B730B840B78
S11316E0BAF09150A1F0FF0FBB1F661F771F881F30
S11316F0C2F70EC0BA0F621F731F841F48F4879588
S113170077956795B795F7959E3F08F0B3CF939576
S1131710880F08F09927EE0F9795879508950CD0B8
S113172022C11AD140F011D130F021F45F3F19F0F9
S1131730DAC0511163C106C127D198F39923C9F3C3
S11317405523B1F3951B550BBB27AA2762177307C3
S1131750840738F09F5F5F4F220F331F441FAA1F77
S1131760A9F333D00E2E3AF0E0E830D09150504037
S1131770E695001CCAF729D0FE2F27D0660F771FE5
S1131780881FBB1F261737074807AB07B0E809F0C7
S1131790BB0B802DBF01FF2793585F4F2AF09E3F5C
S11317A0510568F0A0C02AC15F3FECF3983EDCF31A
S11317B0869577956795B795F7959F5FC9F7880FD5
S11317C0911D9695879597F90895E1E0660F771F27
S11317D0881FBB1F621773078407BA0720F0621BB8
S11317E0730B840BBA0BEE1F88F7E0950895D4D0E1
S11317F088F09F5790F0B92F9927B751A0F0D1F0F6
S1131800660F771F881F991F1AF0BA95C9F712C07F
S1131810B13081F0F2D0B1E00895EFC0672F782F96
S11318208827B85F39F0B93FCCF3869577956795EB
S1131830B395D9F73EF490958095709561957F4F57
S11318408F4F9F4F0895E89409C097FB3EF49095FD
S11318508095709561957F4F8F4F9F4F9923A9F085
S1131860F92F96E9BB279395F69587957795679514
S1131870B795F111F8CFFAF4BB0F11F460FF1BC058
S11318806F5F7F4F8F4F9F4F16C0882311F096E9EB
S113189011C0772321F09EE8872F762F05C0662399
S11318A071F096E8862F70E060E02AF09A95660F52
S11318B0771F881FDAF7880F9695879597F908950B
S11318C085D080F09F3740F491110EF097C060E00E
S11318D070E080E89FEB089526F41B16611D711DCE
S11318E0811D07C021C097F99F6780E870E060E020
S11318F00895882371F4772321F09850872B762F4D
S113190007C0662311F499270DC09051862B70E00F
S113191060E02AF09A95660F771F881FDAF7880F20
S11319209695879597F908959F3F31F0915020F44B
S1131930879577956795B795880F911D96958795A7
S113194097F908959FEF80EC089500240A941616E1
S1131950170618060906089500240A941216130699
S1131960140605060895092E0394000C11F4882327
S113197052F0BB0F40F4BF2B11F460FF04C06F5F43
S11319807F4F8F4F9F4F089557FD9058440F551F19
S113199059F05F3F71F04795880F97FB991F61F0ED
S11319A09F3F79F087950895121613061406551F64
S11319B0F2CF4695F1DF08C0161617061806991FD0
S11319C0F1CF86957105610508940895E5DFA0F0CF
S11319D0BEE7B91788F4BB279F3860F41616B11D0B
S11319E0672F782F8827985FF7CF86957795679527
S11319F0B11D93959639C8F30895E894BB276627DB
S1131A007727CB0197F90895C7DFA8F19E57A8F16E
S1131A10985160F039F1983070F5092E9927660FC6
S1131A20771F881F991F0A94D1F71CC0BB27993FC1
S1131A304CF4B111B1E0B62B672F782F8827985F4B
S1131A40B1F708C0869577956795B79508F4B160A6
S1131A509395C1F7BB0F30F411F460FF03C06F5FBF
S1131A607F4F8F4F3EF490958095709561957F4F91
S1131A708F4F9F4F08956894C1CFBFCF0BD073CFC2
S1131A8064DF28F069DF18F0952309F02CCF5ACFD2
S1131A901124B4CF79DFA0F3959FD1F3950F50E0D3
S1131AA0551F629FF001729FBB27F00DB11D639F0C
S1131AB0AA27F00DB11DAA1F649F6627B00DA11DB2
S1131AC0661F829F2227B00DA11D621F739FB00D58
S1131AD0A11D621F839FA00D611D221F749F3327C8
S1131AE0A00D611D231F849F600D211D822F762F61
S1131AF06A2F11249F5750408AF0E1F088234AF05E
S1131B00EE0FFF1FBB1F661F771F881F91505040A9
S1131B10A9F79E3F510570F0E6CE70CF5F3FECF31E
S1131B20983EDCF3869577956795B795F795E79595
S1131B309F5FC1F7FE2B880F911D9695879597F9A6
S1131B400895A1E21A2EAA1BBB1BFD010DC0AA1FFA
S1131B50BB1FEE1FFF1FA217B307E407F50720F012
S1131B60A21BB30BE40BF50B661F771F881F991F8D
S1131B701A9469F760957095809590959B01AC01D6
S1131B80BD01CF010895052E97FB1EF400940E9419
S1131B90DA0D57FD07D00E94A10D07FC03D04EF4C7
S1131BA00C94DA0D50954095309521953F4F4F4F49
S1131BB05F4F089590958095709561957F4F8F4FF5
S1131BC09F4F0895A29FB001B39FC001A39F700DC2
S1131BD0811D1124911DB29F700D811D1124911D31
S1091BE00895F894FFCF04
S1071BE69F860100D1
S9030000FC
