:100000000C943E000C9448000C9448000C9448005A
:100010000C9448000C9448000C9448000C94480040
:100020000C9448000C9448000C9448000C94480030
:100030000C9448000C9448000C9448000C94480020
:100040000C9448000C9448000C9448000C94480010
:100050000C9448000C9448000C9448000C94480000
:100060000C9448000C9448000C9448000C944800F0
:100070000C9448000C9448000C94480011241FBEB6
:10008000CFEFD4E0DEBFCDBF0E944A000C945D00EC
:100090000C940000CF93DF9300D0CDB7DEB787E09C
:1000A00090E09A83898389819A8101969A838983D2
:0E00B00089819A8194B983B9F6CFF894FFCF75
:00000001FF
