:100000000C943E000C945B000C945B000C945B0021
:100010000C945B000C945B000C945B000C945B00F4
:100020000C945B000C945B000C945B000C945B00E4
:100030000C945B000C945B000C945B000C945B00D4
:100040000C945B000C945B000C945B000C945B00C4
:100050000C945B000C945B000C945B000C945B00B4
:100060000C945B000C945B000C945B000C945B00A4
:100070000C9438010C945B000C945B0011241FBE9F
:10008000CFEFD8E0DEBFCDBF11E0A0E0B1E0EAE500
:10009000F5E002C005900D92A430B107D9F721E038
:1000A000A4E0B1E001C01D92AE30B207E1F70E94BA
:1000B000C8000C94AB020C940000CF93DF939C011A
:1000C0005298CAECD0E088818F738883E8ECF0E026
:1000D00080818D7F8083442737FD4095542F84E0B5
:1000E000220F331F441F551F8A95D1F760E072E13C
:1000F0008AE790E00E946A022150310941095109C2
:10010000CA01B9010E9471010E94AC01272F332757
:1001100027FD3A952093CD006093CC00E9ECF0E008
:1001200080E1808388818660888380818B7F808363
:100130008881877F888388818F7C8883808180689D
:100140008083DF91CF910895E0910701F0E0EE0FF9
:10015000FF1FE85FFE4F8181E0910701F0E0EE0FA5
:10016000FF1FE85FFE4F8081E0910701F0E0EE0F96
:10017000FF1FE85FFE4F1082909107019F5F9093F1
:10018000070190910701933010F010920701089534
:10019000CF93DF931F92CDB7DEB780E895E20E9440
:1001A0005D000E942F020E944702219878940E94CD
:1001B000A400898389818823D1F389818335D9F08B
:1001C00040F4823419F1843459F0803309F44DC07D
:1001D00020C0843629F0833771F08236D1F416C0FE
:1001E000809102019091030121E082279093030105
:1001F00080930201DCCF809100019091010121E008
:1002000082279093010180930001D1CF009A019A37
:10021000CECF898190E0C0970A9738F58091000190
:1002200090910101892B59F0898190E0C0970E943B
:100230000F02898190E0C0970E94120202C00E94C2
:1002400025028091020190910301892B59F0898147
:1002500090E0C0970E941502898190E0C0970E94AB
:100260001902A5CF0E942902A2CF0E941D029FCF92
:100270001F920F920FB60F9211248F939F93EF93BB
:10028000FF93E0910601F0E08091CE00EE0FFF1F9A
:10029000E85FFE4F8083E0910601F0E0EE0FFF1F64
:1002A000E85FFE4F81E08183809106018F5F80933C
:1002B000060181E090E09093050180930401809114
:1002C0000601833010F010920601199AFF91EF9108
:1002D0009F918F910F900FBE0F901F901895E894EB
:1002E00009C097FB3EF490958095709561957F4F7E
:1002F0008F4F9F4F9923A9F0F92F96E9BB2793952C
:10030000F695879577956795B795F111F8CFFAF43B
:10031000BB0F11F460FF1BC06F5F7F4F8F4F9F4F6C
:1003200016C0882311F096E911C0772321F09EE8CA
:10033000872F762F05C0662371F096E8862F70E030
:1003400060E02AF09A95660F771F881FDAF7880F0A
:100350009695879597F9089541D0A8F19E57A8F1F1
:10036000985160F039F1983070F5092E9927660F91
:10037000771F881F991F0A94D1F71CC0BB27993F8C
:100380004CF4B111B1E0B62B672F782F8827985F16
:10039000B1F708C0869577956795B79508F4B16071
:1003A0009395C1F7BB0F30F411F460FF03C06F5F8A
:1003B0007F4F8F4F3EF490958095709561957F4F5C
:1003C0008F4F9F4F0895689424C022C057FD9058C6
:1003D000440F551F59F05F3F71F04795880F97FB09
:1003E000991F61F09F3F79F08795089512161306C3
:1003F0001406551FF2CF4695F1DF08C016161706F2
:100400001806991FF1CF8695710561050894089526
:10041000E894BB2766277727CB0197F9089588ECE6
:1004200087BD089588EC88BD089588EC8093B3005B
:10043000089588EC8093B400089588EC87BD88BD4A
:100440008093B3008093B400089588EC87BD88BD85
:10045000089588EC8093B3008093B4000895239AA4
:10046000249A84B5806884BD84B58F7B84BD84B5AF
:10047000806284BD84B58F7E84BD84B5836084BD75
:1004800088EC87BD88BD16BC83E085BD0895579A6A
:10049000569AE0EBF0E080818068808380818F7BDA
:1004A000808384B5806284BD84B58F7E84BD808165
:1004B0008360808388EC8093B3008093B4001092B3
:1004C000B200E1EBF0E080818C7F808380818460EA
:1004D00080830895052E97FB1EF400940E948102EC
:1004E00057FD07D00E94890207FC03D04EF40C94FC
:1004F000810250954095309521953F4F4F4F5F4F6A
:10050000089590958095709561957F4F8F4F9F4F7F
:100510000895A1E21A2EAA1BBB1BFD010DC0AA1F44
:10052000BB1FEE1FFF1FA217B307E407F50720F05C
:10053000A21BB30BE40BF50B661F771F881F991FD7
:100540001A9469F760957095809590959B01AC0120
:0A055000BD01CF010895F894FFCF1C
:04055A00010001009B
:00000001FF
