S01600005465737450574D5F6D6F746F72312E73726563B9
S11300000C943E000C945B000C945B000C945B001D
S11300100C945B000C945B000C945B000C945B00F0
S11300200C945B000C945B000C945B000C945B00E0
S11300300C945B000C945B000C945B000C945B00D0
S11300400C945B000C945B000C9421010C945B00F9
S11300500C945B000C945B000C945B000C945B00B0
S11300600C945B000C945B000C945B000C945B00A0
S11300700C945B000C945B000C945B0011241FBE79
S1130080CFEFD8E0DEBFCDBF11E0A0E0B1E0EEE1FC
S1130090F6E002C005900D92A430B107D9F721E033
S11300A0A4E0B1E001C01D92AC30B207E1F70E94B8
S11300B091000C940D030C940000F89424B520686E
S11300C024BD2FEB30E030930B0120930A0124B5BB
S11300D02F7B24BD60930001709301018093020182
S11300E09093030120E030E048EC52E40E94A10127
S11300F020E030E04FE753E40E94AA020E94090284
S113010067BD16BC83E085BD85B3837085BB7894D9
S1130110089584B58F7384BD85B5887F85BD2B987C
S1130120089580E090E0A0E7B2E480930601909304
S11301300701A0930801B0930901239A099A089A28
S1130140109A119884B5806884BD8FEB90E09093E9
S11301500B0180930A0184B58F7B84BD84B58360D1
S113016084BDEEE6F0E080818160808320E030E0B1
S113017048EC52E460910001709101018091020108
S1130180909103010E94A10120E030E04FE753E485
S11301900E94AA020E94090267BD7894C0900601D9
S11301A0D0900701E0900801F090090120E030E0D0
S11301B044EB52E4C701B6010E949D0188238CF4EC
S11301C020E030E040E450E4C701B6010E94390168
S11301D060930601709307018093080190930901CD
S11301E008C01092060110920701109208011092A3
S11301F009016091060170910701809108019091B5
S113020009010E945D002FEF89E698E121508040AA
S11302109040E1F700C000000E9489008091040131
S113022090910501019690930501809304012FEFAD
S113023089E698E1215080409040E1F700C0000039
S1130240ADCF1F920F920FB60F9211248F939F93ED
S1130250809104019091050101969093050180938A
S113026004019F918F910F900FBE0F901F901895CE
S11302705058BB27AA270ED033C124D130F029D13E
S113028020F031F49F3F11F41EF419C10EF4E095EF
S1130290E7FB0FC1E92F35D180F3BA176207730763
S11302A08407950718F071F49EF54DC10EF4E0959E
S11302B00B2EBA2FA02D0B01B90190010C01CA011C
S11302C0A0011124FF27591B99F0593F50F4503EC7
S11302D068F11A16F040A22F232F342F4427585FB9
S11302E0F3CF469537952795A795F0405395C9F7D1
S11302F07EF41F16BA0B620B730B840BBAF0915089
S1130300A1F0FF0FBB1F661F771F881FC2F70EC027
S1130310BA0F621F731F841F48F4879577956795FA
S1130320B795F7959E3F08F0B3CF9395880F08F0E3
S11303309927EE0F97958795089597D008F481E053
S113034008950CD0CDC0C5D040F0BCD030F021F41D
S11303505F3F19F0AEC05111F7C0B1C0D2D098F3CD
S11303609923C9F35523B1F3951B550BBB27AA2732
S113037062177307840738F09F5F5F4F220F331FA4
S1130380441FAA1FA9F333D00E2E3AF0E0E830D070
S113039091505040E695001CCAF729D0FE2F27D073
S11303A0660F771F881FBB1F261737074807AB0741
S11303B0B0E809F0BB0B802DBF01FF2793585F4FB6
S11303C02AF09E3F510568F074C0BEC05F3FECF355
S11303D0983EDCF3869577956795B795F7959F5F7B
S11303E0C9F7880F911D9695879597F90895E1E0CF
S11303F0660F771F881FBB1F621773078407BA072E
S113040020F0621B730B840BBA0BEE1F88F7E09588
S113041008957FD088F09F5790F0B92F9927B7514E
S1130420A0F0D1F0660F771F881F991F1AF0BA95B4
S1130430C9F712C0B13081F086D0B1E0089583C00D
S1130440672F782F8827B85F39F0B93FCCF38695AA
S113045077956795B395D9F73EF490958095709507
S113046061957F4F8F4F9F4F0895990F0008550F47
S1130470AA0BE0E8FEEF16161706E807F907C0F026
S113048012161306E407F50798F0621B730B840B2E
S1130490950B39F40A2661F0232B242B252B21F408
S11304A008950A2609F4A140A6958FEF811D811DA8
S11304B0089597F99F6780E870E060E008959FEFE2
S11304C080EC089500240A941616170618060906E7
S11304D0089500240A9412161306140605060895B6
S11304E0092E0394000C11F4882352F0BB0F40F43E
S11304F0BF2B11F460FF04C06F5F7F4F8F4F9F4F7E
S1130500089557FD9058440F551F59F05F3F71F0FF
S11305104795880F97FB991F61F09F3F79F0879566
S11305200895121613061406551FF2CF4695F1DFEF
S113053008C0161617061806991FF1CF869571057F
S1130540610508940895E894BB2766277727CB01B3
S113055097F908950BD0C4CFB5DF28F0BADF18F0AF
S1130560952309F0A6CFABCF1124EECFCADFA0F3B9
S1130570959FD1F3950F50E0551F629FF001729F34
S1130580BB27F00DB11D639FAA27F00DB11DAA1F53
S1130590649F6627B00DA11D661F829F2227B00DA0
S11305A0A11D621F739FB00DA11D621F839FA00D2B
S11305B0611D221F749F3327A00D611D231F849F7B
S11305C0600D211D822F762F6A2F11249F575040D2
S11305D08AF0E1F088234AF0EE0FFF1FBB1F661F6D
S11305E0771F881F91505040A9F79E3F510570F026
S11305F060CFAACF5F3FECF3983EDCF38695779506
S11306006795B795F795E7959F5FC1F7FE2B880F20
S1110610911D9695879597F90895F894FFCF5C
S107061E00008C4206
S9030000FC
