S00D000054657374332E7372656344
S11300000C9482000C949F000C949F000C949F000D
S11300100C949F000C949F000C949F000C949F00E0
S11300200C949F000C949F000C949F000C949F00D0
S11300300C949F000C949F000C949F000C949F00C0
S11300400C949F000C949F000C949F000C949F00B0
S11300500C949F000C949F000C949F000C949F00A0
S11300600C949F000C949F000C949F000C949F0090
S11300700C94CD010C949F000C949F003F015B01F4
S11300805B015B015B015B015B015B015B015B018C
S11300905B015B015B015B015B015B015B015B017C
S11300A058015B0142015B015B015B015B015B0188
S11300B05B015B015B015B015B015B015B015B015C
S11300C05B014D015B015B015B015B015B015B015A
S11300D05B015B015B015B015B015B015B015B013C
S11300E058015B0142015B015B015B015B015B0148
S11300F05B015B015B015B015B015B015B015B011C
S11301005B014D0111241FBECFEFD8E0DEBFCDBF90
S113011011E0A0E0B1E0E2EAF8E002C005900D923F
S1130120A430B107D9F721E0A4E0B1E001C01D92E9
S1130130AE30B207E1F70E9418010C944F040C94FE
S11301400000CF93DF939C015298CAECD0E08881E1
S11301508F738883E8ECF0E080818D7F8083C90110
S1130160AA2797FDA095BA2F880F991FAA1FBB1F16
S1130170880F991FAA1FBB1F9C01AD01220F331FBB
S1130180441F551F220F331F441F551F60E072E1A7
S11301908AE790E00E940804CA01B901615071091C
S11301A0810991090E9497020E942303272F332774
S11301B027FD3A952093CD006093CC00E9ECF0E064
S11301C080E1808388818660888380818B7F8083BF
S11301D08881877F888388818F7C888380818068F9
S11301E08083DF91CF910895E0910701F0E0EE0F55
S11301F0FF1FE85FFE4F8181E0910701F0E0EE0F01
S1130200FF1FE85FFE4F8081E0910701F0E0EE0FF1
S1130210FF1FE85FFE4F1082909107019F5F90934C
S1130220070190910701933010F01092070108958F
S1130230CF93DF931F92CDB7DEB780E895E20E949B
S1130240A1000E94CF030E94E603219878940F2E08
S1130250F3EBEF2EF12CF02D04EB10E00E94F400F0
S1130260898389818823D1F3898190E0FC01F09707
S1130270E434F10500F5E25CFF4F0C9427040E947E
S1130280C003ECCF809102019091030121E0822709
S11302909093030180930201E1CF8091000190913A
S11302A00101E1E08E279093010180930001D6CFF4
S11302B0009A019AD3CF898190E0C0970A9708F0F9
S11302C069C08091000190910101892B59F16981E4
S11302D070E080E090E00E9497022FE832EC45EF56
S11302E05EE30E94040220E030E04FE753E40E9402
S11302F05D030E94690267BD698170E080E090E05F
S11303000E9497022FE832EC45EF5EE30E9404025C
S113031020E030E04FE753E40E945D030E9469024D
S113032068BD02C00E94C70380910201909103013D
S1130330892B69F1698170E080E090E00E94970266
S11303402FE832EC45EF5EE30E94040220E030E047
S11303504FE753E40E945D030E946902F701608342
S1130360698170E080E090E00E9497022FE832EC0F
S113037045EF5EE30E94040220E030E04FE753E4DF
S11303800E945D030E946902F801608367CF0E94A6
S1130390CA0364CF0E94C00361CF1F920F920FB6AD
S11303A00F9211248F939F93EF93FF93E091060193
S11303B0F0E08091CE00EE0FFF1FE85FFE4F8083D8
S11303C0E0910601F0E0EE0FFF1FE85FFE4F81E0D1
S11303D08183809106018F5F8093060181E090E024
S11303E0909305018093040180910601833010F0FD
S11303F010920601199AFF91EF919F918F910F909E
S11304000FBE0F901F9018955058BB27AA270ED0E7
S1130410E0C0D1D030F0D6D020F031F49F3F11F4B9
S11304201EF4C6C00EF4E095E7FBBCC0E92FE2D091
S113043080F3BA17620773078407950718F071F4FD
S11304409EF5FAC00EF4E0950B2EBA2FA02D0B01E9
S1130450B90190010C01CA01A0011124FF27591B05
S113046099F0593F50F4503E68F11A16F040A22F0B
S1130470232F342F4427585FF3CF4695379527957C
S1130480A795F0405395C9F77EF41F16BA0B620B7B
S1130490730B840BBAF09150A1F0FF0FBB1F661FC2
S11304A0771F881FC2F70EC0BA0F621F731F841F05
S11304B048F4879577956795B795F7959E3F08F02B
S11304C0B3CF9395880F08F09927EE0F97958795EA
S11304D0089598D088F09F5790F0B92F9927B75175
S11304E0A0F0D1F0660F771F881F991F1AF0BA95F4
S11304F0C9F712C0B13081F09FD0B1E008959CC01B
S1130500672F782F8827B85F39F0B93FCCF38695E9
S113051077956795B395D9F73EF490958095709546
S113052061957F4F8F4F9F4F0895E89409C097FBC3
S11305303EF490958095709561957F4F8F4F9F4FB6
S11305409923A9F0F92F96E9BB279395F6958795FA
S113055077956795B795F111F8CFFAF4BB0F11F4BD
S113056060FF1BC06F5F7F4F8F4F9F4F16C0882364
S113057011F096E911C0772321F09EE8872F762F9A
S113058005C0662371F096E8862F70E060E02AF0DB
S11305909A95660F771F881FDAF7880F96958795C7
S11305A097F9089597F99F6780E870E060E00895EF
S11305B09FEF80EC089500240A9416161706180677
S11305C00906089500240A94121613061406050653
S11305D00895092E0394000C11F4882352F0BB0FE4
S11305E040F4BF2B11F460FF04C06F5F7F4F8F4F47
S11305F09F4F089557FD9058440F551F59F05F3F82
S113060071F04795880F97FB991F61F09F3F79F030
S113061087950895121613061406551FF2CF4695B2
S1130620F1DF08C0161617061806991FF1CF869534
S11306307105610508940895E894BB276627772718
S1130640CB0197F90895DEDFA8F19E57A8F19851E0
S113065060F039F1983070F5092E9927660F771FED
S1130660881F991F0A94D1F71CC0BB27993F4CF4EB
S1130670B111B1E0B62B672F782F8827985FB1F7B7
S113068008C0869577956795B79508F4B1609395FA
S1130690C1F7BB0F30F411F460FF03C06F5F7F4FED
S11306A08F4F3EF490958095709561957F4F8F4F55
S11306B09F4F08956894C1CFBFCF0BD08ACF7BDF03
S11306C028F080DF18F0952309F06CCF71CF112446
S11306D0B4CF90DFA0F3959FD1F3950F50E0551F51
S11306E0629FF001729FBB27F00DB11D639FAA2783
S11306F0F00DB11DAA1F649F6627B00DA11D661FD2
S1130700829F2227B00DA11D621F739FB00DA11DF2
S1130710621F839FA00D611D221F749F3327A00DAC
S1130720611D231F849F600D211D822F762F6A2F48
S113073011249F5750408AF0E1F088234AF0EE0FCD
S1130740FF1FBB1F661F771F881F91505040A9F7DA
S11307509E3F510570F026CF70CF5F3FECF3983E7B
S1130760DCF3869577956795B795F795E7959F5F41
S1130770C1F7FE2B880F911D9695879597F90895DB
S113078017BC18BC1092B3001092B400089517BCA3
S113079018BC08951092B3001092B4000895239ADF
S11307A0249A84B5806884BD84B58F7B84BD84B568
S11307B0806284BD84B58F7E84BD84B5836084BD2E
S11307C017BC18BC16BC83E085BD0895579A569A89
S11307D0E0EBF0E080818068808380818F7B808380
S11307E084B5806284BD84B58F7E84BD808183603E
S11307F080831092B3001092B4001092B200E1EB27
S1130800F0E080818C7F8083808184608083089580
S1130810052E97FB1EF400940E941F0457FD07D079
S11308200E942D0407FC03D04EF40C941F04509531
S11308304095309521953F4F4F4F5F4F08959095C8
S11308408095709561957F4F8F4F9F4F0895EE0F60
S1130850FF1F0590F491E02D0994A1E21A2EAA1B22
S1130860BB1BFD010DC0AA1FBB1FEE1FFF1FA2175C
S1130870B307E407F50720F0A21BB30BE40BF50B59
S1130880661F771F881F991F1A9469F760957095E2
S1130890809590959B01AC01BD01CF010895F8941A
S10508A0FFCF84
S10708A2010001004C
S9030000FC
